:100000000C9434000C9451000C9451000C94510049
:100010000C9451000C9451000C9451000C9451001C
:100020000C9451000C9451000C9451000C9451000C
:100030000C9451000C9451000C9451000C945100FC
:100040000C9451000C9451000C9451000C945100EC
:100050000C9451000C9451000C9451000C945100DC
:100060000C9451000C94510011241FBECFEFD8E026
:10007000DEBFCDBF11E0A0E0B1E0ECE4FAE002C0E9
:1000800005900D92A03AB107D9F721E0A0EAB1E0BE
:1000900001C01D92A03EB207E1F70E945E030C94DE
:1000A00024050C9400008AB1807F8AB95E9A5D981D
:1000B00000C000C05C9A00C000C089B18295807FFA
:1000C00000C000C05C9892E09A95F1F700C05C9A7D
:1000D00000C000C099B100C000C05C9892E09A9541
:1000E000F1F700C087FDE6CF5E988AB18F608AB9CC
:1000F0000895382F32953F70282F2F70611121C03D
:100100005D9800C000C05C9A9BB1907F932B9BB917
:1001100082E08A95F1F700C05C9882E08A95F1F759
:1001200000C05C9A8BB1807F822B8BB982E08A956C
:10013000F1F700C05C9882E08A95F1F700C00C945A
:1001400053005D9ADECFCF93C82F8FE59AEE0197CB
:10015000F1F700C000008AB18F608AB9549A559AAD
:10016000569A8BB1807F8BB95C985E985D9800C081
:1001700000005C9A599A92E09A95F1F700C05C9859
:1001800082E08A95F1F700C00E94530060E08C2F56
:100190008C600E94790060E088E20E94790060E053
:1001A00080E8CF910C9479000F931F93CF93DF9346
:1001B000EC018881811105C0DF91CF911F910F91D2
:1001C0000895853299F48E010F5F1F4F8981805306
:1001D00061E0883028F40E947900E8012196E9CF97
:1001E00085E20E94790061E08981F5CF61E00E949B
:1001F00079008E01F2CFEF92FF920F931F93CF936E
:10020000DF9300D000D01F92CDB7DEB79B01AE01C7
:100210004F5F5F4F7A0145E0F70111924A95E9F788
:10022000FE0136960AE010E00097F1F42F3FFFEF51
:100230003F0701F5F7018F010E191F0981918823EE
:10024000D1F30E0D1F1DC8018E199F090597BCF033
:100250000F900F900F900F900F90DF91CF911F9103
:100260000F91FF90EF900895B8010E94FC048293D3
:10027000CB01DACF05E010E0021B130BE2CFF8014F
:1002800081918F0161E0805D0E947900DCCF843133
:1002900078F4623049F0633049F0613009F48064E9
:1002A00060E080680C9479008C5EFACF8C5AF8CFAD
:1002B0000895CF93C42F0E9447018C2F82958F7091
:1002C0008A3088F4805D61E00E9479000E945300CA
:1002D0008C2F8F708A3048F4805D61E00E94790035
:1002E000CF910C945300895CEECF895CF6CF90E2FD
:1002F00097B998B9EFECF7E03197F1F700C000003B
:1003000088B1892788B98FE694E90197F1F700C091
:100310000000089580E288B9EFE9FFE03197F1F736
:1003200000C0000098B1982798B9EFE9FCE8319730
:10033000F1F700C00000FFEF27EA31E6F15020405E
:100340003040E1F700C0000088B9EFECF7E03197EA
:10035000F1F700C0000098B1892788B98FE694E9C9
:100360000197F1F700C0000081E090E0089581E07E
:1003700090E00895CF93C62F2A98880F8E770E9419
:1003800058038C2F0E9458032A9ACF9108952A98D7
:10039000880F8E7780680E94580380E00E9458037F
:1003A0002A9A08956FE081E00C94BA010E94D2016C
:1003B0006DE88AE20E94BA016EE38BE20E94BA0104
:1003C0006EE18CE20E94BA0160E08DE20E94BA0107
:1003D00060E485E10E94BA016DE381E10E94BA0107
:1003E00084E10E94C701982F937029F4682F6360FD
:1003F00084E10C94BA0108953F924F925F926F92FC
:100400007F928F929F92AF92BF92CF92DF92EF92A4
:10041000FF920F931F93CF93DF93D82E5B01842E0F
:100420007901E8018CE0D81609F46BC0EEE0DE1625
:1004300009F46CC0312CC12C84E00E94C701682FE4
:100440006F7784E00E94BA018AE00E94C701682F9A
:1004500060688AE00E94BA0160E081E00E94BA010F
:100460008501412C512C3201912CA12CB12C481426
:1004700059046A047B0408F44EC06D2D81E00E948B
:10048000BA018CE0D81208C08DE00E94C701682F25
:1004900060688DE00E94BA0140ED842E47E0942E02
:1004A000A12CB12C132D116084E00E94C701082FEC
:1004B000E1E08E1A9108A108B10819F0812F80237C
:1004C00099F38DE00E94C701682F6F778DE00E943D
:1004D000BA0189288A288B2851F503E0802FDF9103
:1004E000CF911F910F91FF90EF90DF90CF90BF9031
:1004F000AF909F908F907F906F905F904F903F90C4
:10050000089570E3372EE7E7CE2E96CF50E1352ED3
:1005100062E1C62E91CFF80161918F0189E00E94BE
:10052000BA01FFEF4F1A5F0A6F0A7F0AA0CF86E079
:100530000E94C7018B7189F6FC2DF170CF2EC0226D
:10054000E9F102E08CE0D812C9CF8AE00E94C7012D
:10055000182F8CE00E94C701282F2770812F90E070
:1005600079F1019733E0880F991F3A95E1F7820FEF
:10057000911D092E000CAA0BBB0B88839983AA83BB
:10058000BB83112319F1113108F010E1E701812C2F
:10059000912C5401C12ED12CE12CF12C8C149D04F2
:1005A000AE04BF0408F09ACF89E00E94C701899386
:1005B000EFEF8E1A9E0AAE0ABE0AF0CF01E0C2CF5C
:1005C00023E0880F991F2A95E1F7D3CF11E0DECF02
:1005D000EF92FF920F931F93CF93DF9300D000D041
:1005E000CDB7DEB7182F7B0167E08DE00E94BA011E
:1005F000F70110838E010F5F1F4F970141E0B70194
:100600008CE00E94FC018130A1F449815A816B8108
:100610007C81403151056105710559F40F900F90AF
:100620000F900F90DF91CF911F910F91FF90EF905E
:10063000089583E0F3CFEF92FF920F931F93CF9330
:10064000DF9300D000D0CDB7DEB77C0160E08DE055
:100650000E94BA0183E9F701808380E281838E01E1
:100660000F5F1F4F970142E0B7018CE00E94FC0131
:10067000813071F4F70197012C5F3F4F90E0419179
:100680009427E217F307D9F7F7012481921383E047
:100690000F900F900F900F90DF91CF911F910F91BE
:1006A000FF90EF9008958CE284B981E58CBD0895A8
:1006B0008EBD0DB407FEFDCF8EB50895CF93DF93A9
:1006C000CDB7DEB760970FB6F894DEBF0FBECDBFD3
:1006D00067B188B170E045E050E090E00E9477019A
:1006E0002FE788E391E0215080409040E1F700C07F
:1006F000000081E00E94A30060E082E00E944701C8
:1007000082E191E00E94D4000E945303EFEFF9E6EA
:1007100028E1E150F0402040E1F700C0000060E037
:1007200081E00E9479000E948A010E94D60187E33D
:100730000E94C701823909F03FC160E082E00E9457
:10074000470187E291E00E94D40061E084E00E94CA
:10075000470186E391E00E94D40082E00E94C70135
:10076000682F606282E00E94BA0183E00E94C701A4
:10077000682F606883E00E94BA018FEF9EE9E4E28F
:1007800081509040E040E1F700C0000060E081E06F
:100790000E9479002E01F6E04F0E511C95E0692E63
:1007A000712CAA24A394B12C4E0129E0820E911C35
:1007B000BE016F5F7F4F82E50E94E802182F482F2D
:1007C00060E080E00E945901113009F0E3C0CE01E1
:1007D00001960E941B03813009F0FEC08FE59AEE5E
:1007E0000197F1F700C0000060E081E00E9479000D
:1007F0008E010F5F1F4FF80181918F016FEF7FEF27
:1008000090E00E94FB0008151905A9F761E080E05F
:100810000E94470184E691E00E94D400FFEF29E6A0
:1008200088E1F15020408040E1F700C0000060E026
:1008300081E00E9479008E010F5F1F4F78018FE5E4
:100840009AEE0197F1F700C00000F70181917F0156
:100850006FEF7FEF90E00E94FB00E414F50479F75E
:10086000FFEF20E782E0F15020408040E1F700C038
:10087000000060E081E00E94790082E0C82E81E003
:10088000D82E61E080E00E944701F80180816FEF7F
:100890007FEF90E00E94FB00F60181916F01F8016B
:1008A00090819813A2C061E080E00E944701F801A6
:1008B00080816FEF7FEF90E00E94FB0082E791E084
:1008C0000E94D400FFE728E381E0F15020408040FF
:1008D000E1F700C0000060E081E00E947900B09282
:1008E0000101A09200010F5F1F4F0E151F0549F671
:1008F00080910001909101010197B9F460E081E0DD
:100900000E9479009FEFE4E3FCE09150E040F0406A
:10091000E1F700C0000088E791E00E94D4000E9447
:100920008A01709201016092000180910001909112
:100930000101019689F460E081E00E9479008FEF67
:1009400090E7E2E081509040E040E1F700C0000015
:1009500080E891E00E94D400FFE72FE482E1F150AB
:1009600020408040E1F700C0000060E081E00E948C
:1009700079008AE891E00E94D4009FE7EAE1F6E07E
:100980009150E040F040E1F700C0000060E081E0FD
:100990000E94790082E991E00E94D4002FEF89E65D
:1009A00098E1215080409040E1F700C0000060E0F5
:1009B00081E00E947900FCCE805960E0823030F402
:1009C00082E00E9447018FE391E0BDCE80E00E946B
:1009D00047018EE491E0BFCE61E080E00E944701D4
:1009E0008EE591E00E94D40011CF8FEF9FEF90939E
:1009F00001018093000177CF97FB072E16F4009436
:100A000007D077FD09D00E94100507FC05D03EF401
:100A1000909581959F4F0895709561957F4F0895AA
:100A2000AA1BBB1B51E107C0AA1FBB1FA617B70714
:100A300010F0A61BB70B881F991F5A95A9F7809530
:0C0A40009095BC01CD010895F894FFCF03
:100A4C00FEFFAE442D5B9C00000000000000000087
:100A5C0000004543454E3133313020446F6F7220D6
:100A6C004F70656E6572004D4946415245205243A8
:100A7C003532327632004465746563746564004DBA
:100A8C0049464152452052433532327631004E6F41
:100A9C002072656164657220666F756E64004572C4
:100AAC00726F7200424F555420544F2043484543B7
:100ABC004B004D4154434800535543434553530059
:100ACC006E6F742076616C696400434845434B45F6
:100ADC00440070726573656E74206361726400000B
:00000001FF
