:100000000C9434000C9451000C9451000C94510049
:100010000C9451000C9451000C9451000C9451001C
:100020000C9451000C9451000C9451000C9451000C
:100030000C9451000C9451000C9451000C945100FC
:100040000C9451000C9451000C9451000C945100EC
:100050000C9451000C9451000C9451000C945100DC
:100060000C9451000C94510011241FBECFEFD8E026
:10007000DEBFCDBF11E0A0E0B1E0E8E6FBE002C0EA
:1000800005900D92AC39B107D9F721E0ACE9B1E0A8
:1000900001C01D92AC3DB207E1F70E9431030C9400
:1000A000B2050C9400008AB1807F8AB95E9A5D988F
:1000B00000C000C05C9A00C000C089B18295807FFA
:1000C00000C000C05C9892E09A95F1F700C05C9A7D
:1000D00000C000C099B100C000C05C9892E09A9541
:1000E000F1F700C087FDE6CF5E988AB18F608AB9CC
:1000F0000895382F32953F70282F2F70611121C03D
:100100005D9800C000C05C9A9BB1907F932B9BB917
:1001100082E08A95F1F700C05C9882E08A95F1F759
:1001200000C05C9A8BB1807F822B8BB982E08A956C
:10013000F1F700C05C9882E08A95F1F700C00C945A
:1001400053005D9ADECFCF93C82F8FE59AEE0197CB
:10015000F1F700C000008AB18F608AB9549A559AAD
:10016000569A8BB1807F8BB95C985E985D9800C081
:1001700000005C9A599A92E09A95F1F700C05C9859
:1001800082E08A95F1F700C00E94530060E08C2F56
:100190008C600E94790060E088E20E94790060E053
:1001A00080E8CF910C9479000F931F93CF93DF9346
:1001B000EC018881811105C0DF91CF911F910F91D2
:1001C0000895853299F48E010F5F1F4F8981805306
:1001D00061E0883028F40E947900E8012196E9CF97
:1001E00085E20E94790061E08981F5CF61E00E949B
:1001F00079008E01F2CFEF92FF920F931F93CF936E
:10020000DF9300D000D01F92CDB7DEB79B01AE01C7
:100210004F5F5F4F7A0145E0F70111924A95E9F788
:10022000FE0136960AE010E00097F1F42F3FFFEF51
:100230003F0701F5F7018F010E191F0981918823EE
:10024000D1F30E0D1F1DC8018E199F090597BCF033
:100250000F900F900F900F900F90DF91CF911F9103
:100260000F91FF90EF900895B8010E948A05829344
:10027000CB01DACF05E010E0021B130BE2CFF8014F
:1002800081918F0161E0805D0E947900DCCF843133
:1002900078F4623049F0633049F0613009F48064E9
:1002A00060E080680C9479008C5EFACF8C5AF8CFAD
:1002B0000895CF93C42F0E9447018C2F82958F7091
:1002C0008A3088F4805D61E00E9479000E945300CA
:1002D0008C2F8F708A3048F4805D61E00E94790035
:1002E000CF910C945300895CEECF895CF6CF80915E
:1002F000860090918700885E934090938900809358
:1003000088002FEF84E39CE0215080409040E1F78B
:1003100000C0000081E090E00895CF93C62F2A9896
:10032000880F8E770E942B038C2F0E942B032A9A12
:10033000CF9108952A98880F8E7780680E942B03AA
:1003400080E00E942B032A9A08956FE081E00C94CC
:100350008D010E94A5016DE88AE20E948D016EE385
:100360008BE20E948D016EE18CE20E948D0160E0C3
:100370008DE20E948D0160E485E10E948D016DE3B4
:1003800081E10E948D0184E10E949A01982F93706F
:1003900029F4682F636084E10C948D0108953F92E5
:1003A0004F925F926F927F928F929F92AF92BF9285
:1003B000CF92DF92EF92FF920F931F93CF93DF9331
:1003C000D82E5B01842E7901E8018CE0D81609F45F
:1003D0006BC0EEE0DE1609F46CC0312CC12C84E059
:1003E0000E949A01682F6F7784E00E948D018AE055
:1003F0000E949A01682F60688AE00E948D0160E087
:1004000081E00E948D018501412C512C3201912CFB
:10041000A12CB12C481459046A047B0408F44EC082
:100420006D2D81E00E948D018CE0D81208C08DE016
:100430000E949A01682F60688DE00E948D0140ED56
:10044000842E47E0942EA12CB12C132D116084E052
:100450000E949A01082FE1E08E1A9108A108B108C4
:1004600019F0812F802399F38DE00E949A01682F63
:100470006F778DE00E948D0189288A288B2851F59D
:1004800003E0802FDF91CF911F910F91FF90EF90AC
:10049000DF90CF90BF90AF909F908F907F906F90A4
:1004A0005F904F903F90089570E3372EE7E7CE2E90
:1004B00096CF50E1352E62E1C62E91CFF8016191C1
:1004C0008F0189E00E948D01FFEF4F1A5F0A6F0ACA
:1004D0007F0AA0CF86E00E949A018B7189F6FC2DDD
:1004E000F170CF2EC022E9F102E08CE0D812C9CF22
:1004F0008AE00E949A01182F8CE00E949A01282F0E
:100500002770812F90E079F1019733E0880F991FD0
:100510003A95E1F7820F911D092E000CAA0BBB0B37
:1005200088839983AA83BB83112319F1113108F0C1
:1005300010E1E701812C912C5401C12ED12CE12C2A
:10054000F12C8C149D04AE04BF0408F09ACF89E00E
:100550000E949A018993EFEF8E1A9E0AAE0ABE0A94
:10056000F0CF01E0C2CF23E0880F991F2A95E1F771
:10057000D3CF11E0DECFEF92FF920F931F93CF9373
:10058000DF9300D000D0CDB7DEB7182F7B0167E036
:100590008DE00E948D01F70110838E010F5F1F4FC8
:1005A000970141E0B7018CE00E94CF018130A1F4B6
:1005B00049815A816B817C8140315105610571050A
:1005C00059F40F900F900F900F90DF91CF911F91E2
:1005D0000F91FF90EF90089583E0F3CFEF92FF9299
:1005E0000F931F93CF93DF9300D000D0CDB7DEB72A
:1005F0007C0160E08DE00E948D0183E9F70180833A
:1006000080E281838E010F5F1F4F970142E0B701A7
:100610008CE00E94CF01813071F4F70197012C5FCB
:100620003F4F90E041919427E217F307D9F7F70184
:100630002481921383E00F900F900F900F90DF9121
:10064000CF911F910F91FF90EF9008958CE284B9A4
:1006500081E58CBD08958EBD0DB407FEFDCF8EB52E
:100660000895CF93DF93CDB7DEB7A0970FB6F89478
:10067000DEBF0FBECDBF219A80918000826C809337
:100680008000809181008A61809381008FE097E2F1
:1006900090938700809386008091860090918700D8
:1006A000805D974090938900809388002FEF84E3CA
:1006B0009CE0215080409040E1F700C00000809114
:1006C000860090918700885E934090938900809384
:1006D0008800EFEFF4E32CE0E150F0402040E1F738
:1006E00000C000008FE798E3E1E081509040E040D7
:1006F000E1F700C0000081E00E94A30060E082E01A
:100700000E94470180E091E00E94D40061E085E012
:100710000E9447018CE091E00E94D4008091860005
:1007200090918700805D9740909389008093880026
:10073000FFEF24E38CE0F15020408040E1F700C05F
:1007400000000E9477010E9426039FEFE9E6F8E18E
:100750009150E040F040E1F700C0000060E081E02F
:100760000E9479008091860090918700805D97407B
:1007700090938900809388002FEF84E39CE02150C0
:1007800080409040E1F700C000000E9477010E9485
:10079000A90187E30E949A01823909F088C160E0CB
:1007A00082E00E94470182E191E00E94D40061E072
:1007B00084E00E94470181E291E00E94D40082E03F
:1007C0000E949A01682F606282E00E948D0183E09E
:1007D0000E949A01682F606883E00E948D01EFEF0C
:1007E000FEE924E2E150F0402040E1F700C00000C3
:1007F00060E081E00E947900CE0101966C0180E109
:10080000F60111928A95E9F78EEA898384E48A8356
:100810008DE28B838BE58C838CE98D833E01F6E141
:100820006F0E711C4E0129E1820E911CBE016F5E9C
:100830007F4F82E50E94BB02182F482F60E080E0C6
:100840000E945901113009F0D2C0CE0141960E9498
:10085000EE02813009F03BC18FE59AEE0197F1F786
:1008600000C0000060E081E00E9479008E010F5E10
:100870001F4FF80181918F016FEF7FEF90E00E9491
:10088000FB0008151905A9F761E080E00E94470107
:100890008FE491E00E94D400FFEF29E688E1F15057
:1008A00020408040E1F700C0000060E081E00E944D
:1008B00079008E010F5E1F4F78018FE59AEE019748
:1008C000F1F700C00000F70181917F016FEF7FEF2A
:1008D00090E00E94FB00E614F70479F7FFEF20E7B1
:1008E00082E0F15020408040E1F700C0000060E06D
:1008F00081E00E947900560161E080E00E9447019A
:10090000F80180816FEF7FEF90E00E94FB00F5011E
:1009100081915F01F80190819813E2C061E080E06D
:100920000E944701F80180816FEF7FEF90E00E9405
:10093000FB008DE591E00E94D400FFE728E381E011
:10094000F15020408040E1F700C0000060E081E00D
:100950000E94790081E090E00F5F1F4FE016F106E2
:1009600059F68130910509F0BEC060E081E00E9437
:1009700079009FEFE9E6F8E19150E040F040E1F7BF
:1009800000C000008091860090918700805D9740B4
:1009900090938900809388002FEF89E698E1215099
:1009A00080409040E1F700C0000083E691E00E94A3
:1009B000D4009FE7EFE4F2E19150E040F040E1F72E
:1009C00000C0000060E081E00E94790085E791E0CE
:1009D0000E94D4002FE78AE196E0215080409040A9
:1009E000E1F700C0000060E081E00E9479008DE73F
:1009F00091E00E94D400EFEFF9E628E1E150F040E9
:100A00002040E1F700C0000060E081E00E94790032
:100A100003E010E060E081E00E9479008AE891E064
:100A20000E94D4008FEF94E3ECE081509040E040CE
:100A3000E1F700C000008091860090918700805D02
:100A400097409093890080938800FFEF24E38CE027
:100A5000F15020408040E1F700C000008091860006
:100A600090918700885E93409093890080938800DE
:100A70009FEFE4E3FCE09150E040F040E1F700C07C
:100A8000000060E081E00E94790080E991E00E942E
:100A9000D4002FEF84E39CE0215080409040E1F7A8
:100AA00000C000000150110909F0B4CFBFCE805939
:100AB00060E0823030F482E00E9447018AE291E0F7
:100AC00074CE80E00E94470189E391E076CE61E038
:100AD00080E00E94470189E491E00E94D400D4CED6
:100AE0008FEF9FEF39CF019609F063CF60E081E08F
:100AF0000E947900FFEF20E782E0F1502040804023
:100B0000E1F700C000008BE691E00E94D4000E9453
:100B100077014FCF97FB072E16F4009407D077FD8F
:100B200009D00E949E0507FC05D03EF49095819562
:100B30009F4F0895709561957F4F0895AA1BBB1B29
:100B400051E107C0AA1FBB1FA617B70710F0A61BCD
:100B5000B70B881F991F5A95A9F780959095BC01EE
:080B6000CD010895F894FFCFC8
:100B6800524649442052656164657200312E302E28
:100B780030004D4946415245205243353232763293
:100B8800004465746563746564004D494641524587
:100B98002052433532327631004E6F2072656164DF
:100BA800657220666F756E64004572726F720042DE
:100BB8004F555420544F20434845434B004D415412
:100BC80043480053554343455353006E6F74207692
:100BD800616C696400434845434B45440070726545
:100BE80073656E74206361726400736572766F005A
:0C0BF800736572766F20646F6E650000FC
:00000001FF
