:100000000C9434000C9451000C9451000C94510049
:100010000C9451000C9451000C9451000C9451001C
:100020000C9451000C9451000C9451000C9451000C
:100030000C9451000C9451000C9451000C945100FC
:100040000C9451000C9451000C9451000C945100EC
:100050000C9451000C9451000C9451000C945100DC
:100060000C9451000C94510011241FBECFEFD8E026
:10007000DEBFCDBF12E0A0E0B1E0E2E7F1E102C0F7
:1000800005900D92AE36B107D9F722E0AEE6B2E0A8
:1000900001C01D92AC39B207E1F70E9480040C94B4
:1000A000B7080C9400008AB1807F8AB95E9A5D9887
:1000B00000C000C05C9A00C000C089B18295807FFA
:1000C00000C000C05C9892E09A95F1F700C05C9A7D
:1000D00000C000C099B100C000C05C9892E09A9541
:1000E000F1F700C087FDE6CF5E988AB18F608AB9CC
:1000F0000895382F32953F70282F2F70611121C03D
:100100005D9800C000C05C9A9BB1907F932B9BB917
:1001100082E08A95F1F700C05C9882E08A95F1F759
:1001200000C05C9A8BB1807F822B8BB982E08A956C
:10013000F1F700C05C9882E08A95F1F700C00C945A
:1001400053005D9ADECFCF93C82F8FE59AEE0197CB
:10015000F1F700C000008AB18F608AB9549A559AAD
:10016000569A8BB1807F8BB95C985E985D9800C081
:1001700000005C9A599A92E09A95F1F700C05C9859
:1001800082E08A95F1F700C00E94530060E08C2F56
:100190008C600E94790060E088E20E94790060E053
:1001A00080E8CF910C9479000F931F93CF93DF9346
:1001B000EC018881811105C0DF91CF911F910F91D2
:1001C0000895853299F48E010F5F1F4F8981805306
:1001D00061E0883028F40E947900E8012196E9CF97
:1001E00085E20E94790061E08981F5CF61E00E949B
:1001F00079008E01F2CFEF92FF920F931F93CF936E
:10020000DF9300D000D01F92CDB7DEB79B01AE01C7
:100210004F5F5F4F7A0145E0F70111924A95E9F788
:10022000FE0136960AE010E00097F1F42F3FFFEF51
:100230003F0701F5F7018F010E191F0981918823EE
:10024000D1F30E0D1F1DC8018E199F090597BCF033
:100250000F900F900F900F900F90DF91CF911F9103
:100260000F91FF90EF900895B8010E946608829365
:10027000CB01DACF05E010E0021B130BE2CFF8014F
:1002800081918F0161E0805D0E947900DCCF843133
:1002900078F4623049F0633049F0613009F48064E9
:1002A00060E080680C9479008C5EFACF8C5AF8CFAD
:1002B0000895CF93C42F0E9447018C2F82958F7091
:1002C0008A3088F4805D61E00E9479000E945300CA
:1002D0008C2F8F708A3048F4805D61E00E94790035
:1002E000CF910C945300895CEECF895CF6CF90E2FD
:1002F00097B998B9EFECF7E03197F1F700C000003B
:1003000088B1892788B98FE694E90197F1F700C091
:10031000000008953A9A399A2FEF82E597E021502C
:1003200080409040E1F700C00000429A2FEF81EE3C
:1003300094E0215080409040E1F700C0000088B177
:1003400094E0892788B92FEF82E597E0215080401B
:100350009040E1F700C00000419A2FEF81EE94E059
:10036000215080409040E1F700C0000088B192E049
:10037000892788B90895DC011296FB0132960C9604
:100380004D915D91219131914217530731F4A81796
:10039000B907B1F780E090E008958FEF9FEF0895DF
:1003A000DF92EF92FF920F931F93CF93DF93613011
:1003B000710551F58C010E5F1F4F3AE7E32E32E0D5
:1003C000F32EEC012C9644E0D42EF801619171914A
:1003D0008F01F70181917F0190E00E949408D8B8C5
:1003E000FFEF20E782E0F15020408040E1F700C0BD
:1003F0000000C017D10749F7DF91CF911F910F91EE
:10040000FF90EF90DF90089562307105A9F78C019D
:100410000E5F1F4F24E8E22E22E0F22EEC012C9614
:10042000F801619171918F01F70181917F0190E055
:100430000E9494080C171D0799F7DECF81309105B3
:1004400059F4429A2FEF82E597E021508040904086
:10045000E1F700C000000895019671F4419A8FEF12
:1004600092E527E0815090402040E1F700C0000075
:1004700088B192E0892788B90895429A2FEF82E5E2
:1004800097E0215080409040E1F700C0000090E2EA
:1004900098B9EFE9FFE03197F1F700C0000088B1AB
:1004A000892788B98FE99CE80197F1F700C000001F
:1004B00081E090E0089590E298B9EFECF7E0319791
:1004C000F1F700C0000088B1892788B98FE694E968
:1004D0000197F1F700C0000081E090E0089597B126
:1004E00021E0922797B93A9A88B1822788B908956E
:1004F00030992EC060E081E00E9479002FEF89EFF3
:1005000090E0215080409040E1F700C000008AE177
:1005100091E00E94D4000E943D022FEF84E39CE012
:10052000215080409040E1F700C000000E945B0233
:100530002FEF89E698E1215080409040E1F700C01C
:10054000000060E081E00E94790081E090E0089581
:1005500080E090E00895CF92DF92EF92FF920F93A8
:100560001F93CF93DF93C9E7D2E084E7C82E82E0E0
:10057000D82E93E8E92E92E0F92E08E812E089914E
:1005800090E00E948E08F60181936F01F70181913E
:100590007F0190E00E948E08F80181938F01F2E0C4
:1005A000CE37DF0761F7DF91CF911F910F91FF9059
:1005B000EF90DF90CF900895CF93C62F2A98880FA1
:1005C0008E770E947A048C2F0E947A042A9ACF9107
:1005D00008952A98880F8E7780680E947A0480E0B8
:1005E0000E947A042A9A08956FE081E00C94DC025C
:1005F0000E94F4026DE88AE20E94DC026EE38BE264
:100600000E94DC026EE18CE20E94DC0260E08DE27E
:100610000E94DC0260E485E10E94DC026DE381E17E
:100620000E94DC0284E10E94E902982F937029F471
:10063000682F636084E10C94DC0208953F924F922E
:100640005F926F927F928F929F92AF92BF92CF9262
:10065000DF92EF92FF920F931F93CF93DF93D82EE9
:100660005B01842E7901E8018CE0D81609F46BC097
:10067000EEE0DE1609F46CC0312CC12C84E00E943F
:10068000E902682F6F7784E00E94DC028AE00E9412
:10069000E902682F60688AE00E94DC0260E081E085
:1006A0000E94DC028501412C512C3201912CA12C9D
:1006B000B12C481459046A047B0408F44EC06D2D13
:1006C00081E00E94DC028CE0D81208C08DE00E941C
:1006D000E902682F60688DE00E94DC0240ED842E04
:1006E00047E0942EA12CB12C132D116084E00E94C0
:1006F000E902082FE1E08E1A9108A108B10819F06B
:10070000812F802399F38DE00E94E902682F6F7793
:100710008DE00E94DC0289288A288B2851F503E0AD
:10072000802FDF91CF911F910F91FF90EF90DF907D
:10073000CF90BF90AF909F908F907F906F905F9081
:100740004F903F90089570E3372EE7E7CE2E96CF77
:1007500050E1352E62E1C62E91CFF80161918F01F3
:1007600089E00E94DC02FFEF4F1A5F0A6F0A7F0ADE
:10077000A0CF86E00E94E9028B7189F6FC2DF17012
:10078000CF2EC022E9F102E08CE0D812C9CF8AE076
:100790000E94E902182F8CE00E94E902282F27709E
:1007A000812F90E079F1019733E0880F991F3A95F6
:1007B000E1F7820F911D092E000CAA0BBB0B888359
:1007C0009983AA83BB83112319F1113108F010E139
:1007D000E701812C912C5401C12ED12CE12CF12C5C
:1007E0008C149D04AE04BF0408F09ACF89E00E94E7
:1007F000E9028993EFEF8E1A9E0AAE0ABE0AF0CF85
:1008000001E0C2CF23E0880F991F2A95E1F7D3CFEB
:1008100011E0DECFEF92FF920F931F93CF93DF9300
:1008200000D000D0CDB7DEB7182F7B0167E08DE098
:100830000E94DC02F70110838E010F5F1F4F9701AA
:1008400041E0B7018CE00E941E038130A1F4498190
:100850005A816B817C81403151056105710559F4E4
:100860000F900F900F900F90DF91CF911F910F91EC
:10087000FF90EF90089583E0F3CFEF92FF920F93F4
:100880001F93CF93DF9300D000D0CDB7DEB77C01AC
:1008900060E08DE00E94DC0283E9F701808380E262
:1008A00081838E010F5F1F4F970142E0B7018CE0FB
:1008B0000E941E03813071F4F70197012C5F3F4FB6
:1008C00090E041919427E217F307D9F7F7012481CB
:1008D000921383E00F900F900F900F90DF91CF91C4
:1008E0001F910F91FF90EF9008958CE284B981E5FC
:1008F0008CBD08958EBD0DB407FEFDCF8EB5089555
:10090000CF93DF93CDB7DEB76A970FB6F894DEBF0B
:100910000FBECDBF0E94AB020E9477012FE788E394
:1009200091E0215080409040E1F700C0000081E05C
:100930000E94A30060E080E00E94470187E291E00E
:100940000E94D40061E080E00E94470185E391E0CD
:100950000E94D400EFEFF3ED20E3E150F04020409F
:10096000E1F700C0000060E081E00E94790060E0F3
:1009700080E00E94470182E491E00E94D40061E09F
:1009800080E00E94470185E391E00E94D4000E942C
:100990008A010E9475048FEF99E6E8E1815090404A
:1009A000E040E1F700C0000060E081E00E947900D3
:1009B0000E943D020E945B020E94F802FFEF2EE9B6
:1009C00084E2F15020408040E1F700C0000060E088
:1009D00081E00E947900429A9FE7E2E3F2E09150C1
:1009E000E040F040E1F700C0000088B194E08927C2
:1009F00088B98FE59AEE0197F1F700C00000E12C6D
:100A0000F12C00E010E04E0196E0890E911C442488
:100A10004394512C0E94AB02BE016F5F7F4F82E571
:100A20000E940A04D82E482F60E080E00E945901FD
:100A30000E94780260E081E00E94790021E0E216E5
:100A4000F10409F41AC172E0B72EE4E0AE2E0130D1
:100A5000110509F4A7C191E0D91235C3CE01019661
:100A60000E943D04813009F00BC3FE0131967F01E5
:100A7000F70181917F016FEF7FEF90E00E94FB0013
:100A8000E814F904A9F7CE0101966C013C018FE549
:100A90009AEE0197F1F700C00000F30181913F0148
:100AA0006FEF7FEF90E00E94FB008614970479F7C8
:100AB000FFEF20E782E0F15020408040E1F700C0E6
:100AC000000060E081E00E947900E0E1F1E0FA8F4F
:100AD000E98F2BE0222E21E0322E86E091E09C8BE4
:100AE0008B8BE8E8F2E0F88FEF8B84E792E09A8B4B
:100AF000898BE5E1F1E0FE8BED8B7801580161E037
:100B000080E00E944701F60180816FEF7FEF90E067
:100B10000E94FB00F6018081E98DFA8D9191FA8F98
:100B2000E98F891779F0ED89FE899081891751F055
:100B3000E989FA899081891729F0EF89F88D9081E8
:100B40008913A7C261E080E00E944701F60180811D
:100B50006FEF7FEF90E00E94FB008EE392E00E9437
:100B6000D400FFE728E381E0F15020408040E1F726
:100B700000C0000060E081E00E9479005092050111
:100B800040920401FFEFCF1ADF0A2FEF221A320A38
:100B90008B899C8901969C8B8B8BEF89F88D319684
:100BA000F88FEF8B89899A8901969A8B898BED89C9
:100BB000FE893196FE8BED8B6C147D0409F09FCF7E
:100BC0008091040190910501019729F560E081E091
:100BD0000E947900FFEF24E38CE0F1502040804038
:100BE000E1F700C0000084E492E00E94D4000E947B
:100BF0003D0285E090E090930501809304019FEF12
:100C0000E9E6F8E19150E040F040E1F700C0000073
:100C10000E945B0278018091040190910501019688
:100C200011F581E0A816B104F1F060E081E00E94C6
:100C300079009FEFE0E7F2E09150E040F040E1F70B
:100C400000C0000083E592E00E94D4008FEF9FEF88
:100C50000E941E022FEF80E792E0215080409040DA
:100C6000E1F700C0000060E080E00E94470181E6FB
:100C700092E00E94D4008501CDCE60E081E00E9428
:100C800079008DE491E00E94D400EFEFF7E823E1D2
:100C9000E150F0402040E1F700C00000BE016F5F6E
:100CA0007F4F82E50E940A0460E081E00E947900A3
:100CB00081E691E00E94D40061E080E00E9447015B
:100CC00080E791E00E94D400BE016F5F7F4F82E514
:100CD0000E940A04813009F05BC0CE0101960E9497
:100CE0003D04813009F054C0FE013196A6E0B1E028
:100CF00091918D91E815F905D9F7981347C060E0F7
:100D000081E00E94790081E891E00E94D4008FEF99
:100D100099E6E8E181509040E040E1F700C0000032
:100D2000F9E7EF2EF2E0FF2EA3E8CA2EA2E0DA2EBA
:100D3000F70181917F0160E070E090E00E949408EB
:100D4000F60181916F0160E070E090E00E949408EC
:100D50008EE792E08E159F0559F75092030140925D
:100D6000020160E081E00E9479008FE891E00E943A
:100D7000D4009FEFE2E5F7E09150E040F040E1F76A
:100D800000C000005092030140920201E12CF12CBE
:100D90000E94AB02BE016F5F7F4F82E50E940A0492
:100DA000D82E4CCE429A88B18B2588B98FE798E32C
:100DB000E1E081509040E040E1F700C0000088B1E0
:100DC0008A2588B9419AFFE728E381E0F150204065
:100DD0008040E1F700C00000BE016F5F7F4F82E5F9
:100DE0000E940A0460E081E00E9479008BE991E0B2
:100DF0000E94D40061E080E00E94470188EA91E00F
:100E00000E94D400BE016F5F7F4F82E50E940A04FA
:100E1000D82E8091020190910301039724F1E3E021
:100E2000F0E0F0930301E093020160E081E00E94B2
:100E3000790060E080E00E94470182EB91E00E942F
:100E4000D40061E080E00E94470183EC91E00E94C1
:100E5000D400FFEF29E688E1F15020408040E1F71F
:100E600000C00000870191E0D912CFC0CE010196E9
:100E70000E943D04813009F0C8C06701E1E0F0E064
:100E8000EC0FFD1FEC0DFD1D8081F601EC58FD4FB0
:100E90009081891731F0F601E857FD4F9081891351
:100EA00025C060E081E00E94790060E080E00E945F
:100EB000470188EC91E00E94D40081ED91E00E940E
:100EC000D40061E080E00E9447018DED91E00E9436
:100ED000D400EFEFF3ED20E3E150F0402040E1F7E4
:100EE00000C00000870165E0C62ED12CE1E0F0E0F3
:100EF000EC0FFD1FEC0DFD1D9081F601E55FFE4F2F
:100F0000808160E098138BC081E00E94790084EEBC
:100F100091E00E94D40061E080E00E9447018DEEE4
:100F200091E00E94D4008FEF99E6E8E18150904073
:100F3000E040E1F700C0000061E080E00E9447016E
:100F40008BEF91E00E94D400FFEF29E688E1F15099
:100F500020408040E1F700C0000061E080E00E9496
:100F600047018BE092E00E94D4009FEFE9E6F8E1B0
:100F70009150E040F040E1F700C00000870155E0EB
:100F8000C52ED12C2FEFC21AD20A85E0C816D10483
:100F90000CF474CF8091020190910301813091058E
:100FA00009F041C00130110581F560E081E00E9447
:100FB00079008CE192E00E94D4009FEFE9E6F8E12D
:100FC0009150E040F040E1F700C000008E010F5F5B
:100FD0001F4F49E7C42E42E0D42EF80161918F01E2
:100FE000F60181916F0170E090E00E94940808156D
:100FF000190599F782E090E0909303018093020134
:1010000060E081E00E94790087010E94AB02BE018E
:101010006F5F7F4F82E50E940A04D82E18CD81E0D1
:101020000E947900AFCF029781F70130110569F76F
:1010300060E081E00E9479008AE292E00E94D400A0
:101040009FEFE9E6F8E19150E040F040E1F700C0A1
:1010500000008E010F5F1F4F33E8C32E32E0D32E06
:10106000F80161918F01F60181916F0170E090E0CC
:101070000E9494080815190599F783E090E0BCCF09
:1010800061E080E00E94470188E392E00E94D40082
:10109000FACCF1019081891771F0EB89FC8990817C
:1010A000891769F08FEF9FEF9093050180930401FA
:1010B0007801580167CDAA24A394B12C63CDEE2406
:1010C000E394F12C5FCD78015801CDCD97FB072E2D
:1010D00016F4009407D077FD09D00E947A0807FC27
:1010E00005D03EF4909581959F4F08957095619538
:1010F0007F4F0895AA1BBB1B51E107C0AA1FBB1F4E
:10110000A617B70710F0A61BB70B881F991F5A9593
:10111000A9F780959095BC01CD010895A8E1B0E0B4
:1011200042E050E00C949B080E94A908272F0C94E1
:10113000AA08DC01CB01FC01F999FECF06C0F2BD83
:10114000E1BDF89A319600B40D9241505040B8F785
:101150000895262FF999FECF1FBA92BD81BD20BDFB
:101160000FB6F894FA9AF99A0FBE01960895F8947A
:02117000FFCFAF
:1011720005000100FEFF9192056B6D79F1B53B060A
:1011820040EEDF87F6AE442D5B9C627574746F6E21
:10119200207072657373004543454E313331302000
:1011A20052464944004B6576696E204B75776174EF
:1011B2006100546167205265616465720064656C08
:1011C2006574652074616720616369766174656422
:1011D200005363616E20616761696E20746F200045
:1011E20064656C65746520616C6C20746167732E34
:1011F2000052656D6F76696E6720546167730054A3
:1012020061677320457261736564005363616E2088
:1012120074616720746F2000626520616464656494
:101222002E00454550524F4D2054616720536C6F3C
:1012320074730046756C6C004572726F7220333A9B
:101242000054616720616C72656164790073746F28
:10125200726564004572726F7220313A0061747473
:10126200656D7074696E6720746F006164642061DB
:101272002070726F7465637465640052464944203D
:101282007461672E20202020202020004144444900
:101292004E472043415244203100414444494E4785
:1012A20020434152442032004572726F72004D4118
:1012B20054434800416363657373204772616E74DF
:1012C2006564004163636573732044656E69656498
:0E12D2000050726573656E74205461670000F1
:00000001FF
