:100000000C9434000C9451000C9451000C94510049
:100010000C9451000C9451000C9451000C9451001C
:100020000C9451000C9451000C9451000C9451000C
:100030000C9451000C9451000C9451000C945100FC
:100040000C9451000C9451000C9451000C945100EC
:100050000C9451000C9451000C9451000C945100DC
:100060000C9451000C94510011241FBECFEFD8E026
:10007000DEBFCDBF11E0A0E0B1E0E8ECFFE002C0E0
:1000800005900D92A03FB107D9F722E0A0EFB1E0B3
:1000900001C01D92AE31B207E1F70E9480040C94BA
:1000A000E2070C9400008AB1807F8AB95E9A5D985D
:1000B00000C000C05C9A00C000C089B18295807FFA
:1000C00000C000C05C9892E09A95F1F700C05C9A7D
:1000D00000C000C099B100C000C05C9892E09A9541
:1000E000F1F700C087FDE6CF5E988AB18F608AB9CC
:1000F0000895382F32953F70282F2F70611121C03D
:100100005D9800C000C05C9A9BB1907F932B9BB917
:1001100082E08A95F1F700C05C9882E08A95F1F759
:1001200000C05C9A8BB1807F822B8BB982E08A956C
:10013000F1F700C05C9882E08A95F1F700C00C945A
:1001400053005D9ADECFCF93C82F8FE59AEE0197CB
:10015000F1F700C000008AB18F608AB9549A559AAD
:10016000569A8BB1807F8BB95C985E985D9800C081
:1001700000005C9A599A92E09A95F1F700C05C9859
:1001800082E08A95F1F700C00E94530060E08C2F56
:100190008C600E94790060E088E20E94790060E053
:1001A00080E8CF910C9479000F931F93CF93DF9346
:1001B000EC018881811105C0DF91CF911F910F91D2
:1001C0000895853299F48E010F5F1F4F8981805306
:1001D00061E0883028F40E947900E8012196E9CF97
:1001E00085E20E94790061E08981F5CF61E00E949B
:1001F00079008E01F2CFEF92FF920F931F93CF936E
:10020000DF9300D000D01F92CDB7DEB79B01AE01C7
:100210004F5F5F4F7A0145E0F70111924A95E9F788
:10022000FE0136960AE010E00097F1F42F3FFFEF51
:100230003F0701F5F7018F010E191F0981918823EE
:10024000D1F30E0D1F1DC8018E199F090597BCF033
:100250000F900F900F900F900F90DF91CF911F9103
:100260000F91FF90EF900895B8010E94910782933B
:10027000CB01DACF05E010E0021B130BE2CFF8014F
:1002800081918F0161E0805D0E947900DCCF843133
:1002900078F4623049F0633049F0613009F48064E9
:1002A00060E080680C9479008C5EFACF8C5AF8CFAD
:1002B0000895CF93C42F0E9447018C2F82958F7091
:1002C0008A3088F4805D61E00E9479000E945300CA
:1002D0008C2F8F708A3048F4805D61E00E94790035
:1002E000CF910C945300895CEECF895CF6CF90E2FD
:1002F00097B998B9EFECF7E03197F1F700C000003B
:1003000088B1892788B98FE694E90197F1F700C091
:10031000000008953A9A399A2FEF82E597E021502C
:1003200080409040E1F700C00000429A2FEF81EE3C
:1003300094E0215080409040E1F700C0000088B177
:1003400094E0892788B92FEF82E597E0215080401B
:100350009040E1F700C00000419A2FEF81EE94E059
:10036000215080409040E1F700C0000088B192E049
:10037000892788B90895DC011296FB0132960C9604
:100380004D915D91219131914217530731F4A81796
:10039000B907B1F780E090E008958FEF9FEF0895DF
:1003A000DF92EF92FF920F931F93CF93DF93613011
:1003B000710551F58C010E5F1F4F3CEFE32E31E0CC
:1003C000F32EEC012C9644E0D42EF801619171914A
:1003D0008F01F70181917F0190E00E94BF07D8B89B
:1003E000FFEF20E782E0F15020408040E1F700C0BD
:1003F0000000C017D10749F7DF91CF911F910F91EE
:10040000FF90EF90DF90089562307105A9F78C019D
:100410000E5F1F4F26E0E22E22E0F22EEC012C961A
:10042000F801619171918F01F70181917F0190E055
:100430000E94BF070C171D0799F7DECF8130910589
:1004400069F4429A2FEF82E597E021508040904076
:10045000E1F700C0000088B194E00EC00196D9F722
:10046000419A8FEF92E527E0815090402040E1F7DC
:1004700000C0000088B192E0892788B9089581E022
:1004800090E00E941E0290E298B9EFE9FFE03197F8
:10049000F1F700C0000088B1892788B98FE99CE88E
:1004A0000197F1F700C0000080E090E00E941E027A
:1004B00081E090E0089590E298B9EFECF7E0319791
:1004C000F1F700C0000088B1892788B98FE694E968
:1004D0000197F1F700C0000081E090E0089597B126
:1004E00021E0922797B93A9A88B1822788B908956E
:1004F00030992EC060E081E00E9479002FEF89EFF3
:1005000090E0215080409040E1F700C000008AE177
:1005100091E00E94D4000E943F022FEF84E39CE010
:10052000215080409040E1F700C000000E945B0233
:100530002FEF89E698E1215080409040E1F700C01C
:10054000000060E081E00E94790081E090E0089581
:1005500080E090E00895CF92DF92EF92FF920F93A8
:100560001F93CF93DF93CBEFD1E086EFC82E81E0CE
:10057000D82E95E0E92E92E0F92E0AE012E089915A
:1005800090E00E94B907F60181936F01F701819114
:100590007F0190E00E94B907F80181938F01F2E09A
:1005A000C030DF0761F7DF91CF911F910F91FF906E
:1005B000EF90DF90CF900895CF93C62F2A98880FA1
:1005C0008E770E947A048C2F0E947A042A9ACF9107
:1005D00008952A98880F8E7780680E947A0480E0B8
:1005E0000E947A042A9A08956FE081E00C94DC025C
:1005F0000E94F4026DE88AE20E94DC026EE38BE264
:100600000E94DC026EE18CE20E94DC0260E08DE27E
:100610000E94DC0260E485E10E94DC026DE381E17E
:100620000E94DC0284E10E94E902982F937029F471
:10063000682F636084E10C94DC0208953F924F922E
:100640005F926F927F928F929F92AF92BF92CF9262
:10065000DF92EF92FF920F931F93CF93DF93D82EE9
:100660005B01842E7901E8018CE0D81609F46BC097
:10067000EEE0DE1609F46CC0312CC12C84E00E943F
:10068000E902682F6F7784E00E94DC028AE00E9412
:10069000E902682F60688AE00E94DC0260E081E085
:1006A0000E94DC028501412C512C3201912CA12C9D
:1006B000B12C481459046A047B0408F44EC06D2D13
:1006C00081E00E94DC028CE0D81208C08DE00E941C
:1006D000E902682F60688DE00E94DC0240ED842E04
:1006E00047E0942EA12CB12C132D116084E00E94C0
:1006F000E902082FE1E08E1A9108A108B10819F06B
:10070000812F802399F38DE00E94E902682F6F7793
:100710008DE00E94DC0289288A288B2851F503E0AD
:10072000802FDF91CF911F910F91FF90EF90DF907D
:10073000CF90BF90AF909F908F907F906F905F9081
:100740004F903F90089570E3372EE7E7CE2E96CF77
:1007500050E1352E62E1C62E91CFF80161918F01F3
:1007600089E00E94DC02FFEF4F1A5F0A6F0A7F0ADE
:10077000A0CF86E00E94E9028B7189F6FC2DF17012
:10078000CF2EC022E9F102E08CE0D812C9CF8AE076
:100790000E94E902182F8CE00E94E902282F27709E
:1007A000812F90E079F1019733E0880F991F3A95F6
:1007B000E1F7820F911D092E000CAA0BBB0B888359
:1007C0009983AA83BB83112319F1113108F010E139
:1007D000E701812C912C5401C12ED12CE12CF12C5C
:1007E0008C149D04AE04BF0408F09ACF89E00E94E7
:1007F000E9028993EFEF8E1A9E0AAE0ABE0AF0CF85
:1008000001E0C2CF23E0880F991F2A95E1F7D3CFEB
:1008100011E0DECFEF92FF920F931F93CF93DF9300
:1008200000D000D0CDB7DEB7182F7B0167E08DE098
:100830000E94DC02F70110838E010F5F1F4F9701AA
:1008400041E0B7018CE00E941E038130A1F4498190
:100850005A816B817C81403151056105710559F4E4
:100860000F900F900F900F90DF91CF911F910F91EC
:10087000FF90EF90089583E0F3CFEF92FF920F93F4
:100880001F93CF93DF9300D000D0CDB7DEB77C01AC
:1008900060E08DE00E94DC0283E9F701808380E262
:1008A00081838E010F5F1F4F970142E0B7018CE0FB
:1008B0000E941E03813071F4F70197012C5F3F4FB6
:1008C00090E041919427E217F307D9F7F7012481CB
:1008D000921383E00F900F900F900F90DF91CF91C4
:1008E0001F910F91FF90EF9008958CE284B981E5FC
:1008F0008CBD08958EBD0DB407FEFDCF8EB5089555
:10090000CF93DF93CDB7DEB768970FB6F894DEBF0D
:100910000FBECDBF0E94AB020E9477012FE788E394
:1009200091E0215080409040E1F700C0000081E05C
:100930000E94A30060E082E00E94470187E291E00C
:100940000E94D4000E948A010E947504AFEFB9E6AC
:10095000E8E1A150B040E040E1F700C0000060E0F5
:1009600081E00E9479000E943F020E945B020E9487
:10097000F802FFEF2EE984E2F15020408040E1F7D9
:1009800000C0000060E081E00E947900429A9FE789
:10099000A2E3B2E09150A040B040E1F700C00000F7
:1009A00088B194E0892788B9EFE5FAEE3197F1F73D
:1009B00000C00000E12CF12C00E010E04E01F6E058
:1009C0008F0E911C0E94AB02BE016F5F7F4F82E5CC
:1009D0000E940A04D82E482F60E080E00E9459014E
:1009E0000E94780260E081E00E947900E1E0EE166A
:1009F000F10409F40BC10130110509F49DC1F1E0C6
:100A0000DF128CC2CE0101960E943D04813009F0B4
:100A100063C2CE0101967C01D7018D917D016FEFFC
:100A20007FEF90E00E94FB00E814F904A9F7FE01B3
:100A300031966F013F01AFE5BAEE1197F1F700C0B3
:100A40000000F30181913F016FEF7FEF90E00E9482
:100A5000FB008614970479F7FFEF20E782E0F1505E
:100A600020408040E1F700C0000060E081E00E948B
:100A70007900A0E1B1E0B88FAF8B2BE0422E21E0EE
:100A8000522E36E0232E31E0332EEAE0F2E0FA8BEC
:100A9000E98B86EF91E09E8B8D8BA5E1B1E0BC8B5D
:100AA000AB8B7801580161E080E00E944701F601BC
:100AB00080816FEF7FEF90E00E94FB00D6018C9168
:100AC000EF89F88D9191F88FEF8B891779F0AB89C9
:100AD000BC899C91891751F0ED89FE899081891715
:100AE00029F0A989BA899C918913FFC161E080E04E
:100AF0000E944701F60180816FEF7FEF90E00E9436
:100B0000FB008CEC91E00E94D400FFE728E381E039
:100B1000F15020408040E1F700C0000060E081E03B
:100B20000E947900A1E0B0E0B0930501A093040118
:100B3000BFEFCB1ADB0AEFEF4E1A5E0AFFEF2F1A58
:100B40003F0A89899A8901969A8B898BAD89BE89DA
:100B50001196BE8BAD8BEB89FC893196FC8BEB8BB0
:100B60006C147D0409F09FCF8091040190910501E0
:100B7000019729F560E081E00E947900FFEF24E30E
:100B80008CE0F15020408040E1F700C0000082ED91
:100B900091E00E94D4000E943F02A5E0B0E0B09333
:100BA0000501A0930401BFEFE9E6F8E1B150E04090
:100BB000F040E1F700C000000E945B0278018091E4
:100BC0000401909105010196B9F481E0A816B104E1
:100BD00099F060E081E00E9479009FEFA0E7B2E029
:100BE0009150A040B040E1F700C000008AED91E0D4
:100BF0000E94D4000E945B0260E080E00E944701F6
:100C000084EE91E00E94D4008501DCCE60E081E0BA
:100C10000E94790080E491E00E94D4002FEF87E8E1
:100C200093E1215080409040E1F700C00000BE01F8
:100C30006F5F7F4F82E50E940A0460E081E00E94BE
:100C4000790084E591E00E94D40061E080E00E9498
:100C5000470183E691E00E94D400BE016F5F7F4FA1
:100C600082E50E940A04813009F05CC0CE01019641
:100C70000E943D04813009F055C0FE013196A6E086
:100C8000B1E091918D91E815F905D9F7981348C015
:100C900060E081E00E94790084E791E00E94D40046
:100CA000AFEFB9E6E8E1A150B040E040E1F700C0A5
:100CB00000004BEFE42E41E0F42E55E0C52E52E04B
:100CC000D52ED7018D917D0160E070E090E00E940B
:100CD000BF07F60181916F0160E070E090E00E9433
:100CE000BF07F0E0EF16F2E0FF0659F781E090E071
:100CF000909303018093020160E00E94790082E8F2
:100D000091E00E94D4009FEFA2E5B7E09150A0408F
:100D1000B040E1F700C00000109203011092020100
:100D2000E12CF12C0E94AB02BE016F5F7F4F82E588
:100D30000E940A04D82E5ACEBE016F5F7F4F82E513
:100D40000E940A0460E081E00E9479008EE891E050
:100D50000E94D40061E080E00E9447018BE991E0AD
:100D60000E94D400BE016F5F7F4F82E50E940A049B
:100D7000D82E80910201909103010397B4F0109353
:100D800003010093020160E081E00E94790085EA9E
:100D900091E00E94D400FFEF29E688E1F150204065
:100DA0008040E1F700C00000870191E0D91264C0E3
:100DB000CE0101960E943D04813009F05DC0DE0144
:100DC00011966D0126EF31E0EAE0F2E05D01D50118
:100DD0008D915D01D9019D919D01891719F0908137
:100DE000891301C087013196A814B90481F760E026
:100DF00081E00E947900BFEFE3ECF9E0B150E04000
:100E0000F040E1F700C000008091020190910301E1
:100E100081309105D9F50130110571F560E081E06F
:100E20000E9479008AEA91E00E94D4002FEF89E6BF
:100E300098E1215080409040E1F700C000000BEFA6
:100E400011E0D6016D916D01F80181918F0170E083
:100E500090E00E94BF07AC14BD0499F78091020195
:100E6000909103010196909303018093020160E049
:100E700081E00E94790087010E94AB02BE016F5F92
:100E80007F4F82E50E940A04D82EB5CD0297A1F7C4
:100E90000130110589F760E081E00E94790088EB5C
:100EA00091E00E94D400FFEF29E688E1F150204054
:100EB0008040E1F700C0000005E012E0D6016D912E
:100EC0006D01F80181918F0170E090E00E94BF07F1
:100ED000CA14DB0499F7C2CF61E080E00E944701A9
:100EE00086EC91E00E94D400A2CDF2019081891796
:100EF00069F0D1019C91891769F08FEF9FEF909372
:100F00000501809304017801580112CEAA24A3940C
:100F1000B12C0ECEEE24E394F12C0ACE78015801C8
:100F20006BCE97FB072E16F4009407D077FD09D0FF
:100F30000E94A50707FC05D03EF4909581959F4F30
:100F40000895709561957F4F0895AA1BBB1B51E1D1
:100F500007C0AA1FBB1FA617B70710F0A61BB70B29
:100F6000881F991F5A95A9F780959095BC01CD01CE
:100F70000895A8E1B0E042E050E00C94C6070E945A
:100F8000D407272F0C94D507DC01CB01FC01F9997C
:100F9000FECF06C0F2BDE1BDF89A319600B40D92C5
:100FA00041505040B8F70895262FF999FECF1FBA47
:100FB00092BD81BD20BD0FB6F894FA9AF99A0FBE82
:080FC00001960895F894FFCF9B
:100FC80005000100FEFF9192056B6D79F1B53B06B6
:100FD80040EEDF87F6AE442D5B9C627574746F6ECD
:100FE800207072657373004543454E3133313020AC
:100FF8005246494420546167205265616465720015
:1010080064656C65746520746167206163697661E5
:10101800746564005363616E20616761696E207452
:101028006F200064656C65746520616C6C20746168
:1010380067732E0052656D6F76696E67205461671D
:10104800730054616773204572617365640053636C
:10105800616E2074616720746F200062652061648E
:101068006465642E0046756C6C00414444494E47E3
:101078002043415244203100414444494E472043D3
:101088004152442032004572726F72004D41544300
:10109800480053554343455353006E6F742076619F
:1010A8006C69640050726573656E742054616700E2
:00000001FF
