:100000000C9434000C9451000C9451000C94510049
:100010000C9451000C9451000C9451000C9451001C
:100020000C9451000C9451000C9451000C9451000C
:100030000C9451000C9451000C9451000C945100FC
:100040000C9451000C9451000C9451000C945100EC
:100050000C9451000C9451000C9451000C945100DC
:100060000C9451000C94510011241FBECFEFD8E026
:10007000DEBFCDBF11E0A0E0B1E0E8EEFFE002C0DE
:1000800005900D92AC3FB107D9F722E0ACEFB1E09B
:1000900001C01D92AA32B207E1F70E947E040C94BF
:1000A000F2070C9400008AB1807F8AB95E9A5D984D
:1000B00000C000C05C9A00C000C089B18295807FFA
:1000C00000C000C05C9892E09A95F1F700C05C9A7D
:1000D00000C000C099B100C000C05C9892E09A9541
:1000E000F1F700C087FDE6CF5E988AB18F608AB9CC
:1000F0000895382F32953F70282F2F70611121C03D
:100100005D9800C000C05C9A9BB1907F932B9BB917
:1001100082E08A95F1F700C05C9882E08A95F1F759
:1001200000C05C9A8BB1807F822B8BB982E08A956C
:10013000F1F700C05C9882E08A95F1F700C00C945A
:1001400053005D9ADECFCF93C82F8FE59AEE0197CB
:10015000F1F700C000008AB18F608AB9549A559AAD
:10016000569A8BB1807F8BB95C985E985D9800C081
:1001700000005C9A599A92E09A95F1F700C05C9859
:1001800082E08A95F1F700C00E94530060E08C2F56
:100190008C600E94790060E088E20E94790060E053
:1001A00080E8CF910C9479000F931F93CF93DF9346
:1001B000EC018881811105C0DF91CF911F910F91D2
:1001C0000895853299F48E010F5F1F4F8981805306
:1001D00061E0883028F40E947900E8012196E9CF97
:1001E00085E20E94790061E08981F5CF61E00E949B
:1001F00079008E01F2CFEF92FF920F931F93CF936E
:10020000DF9300D000D01F92CDB7DEB79B01AE01C7
:100210004F5F5F4F7A0145E0F70111924A95E9F788
:10022000FE0136960AE010E00097F1F42F3FFFEF51
:100230003F0701F5F7018F010E191F0981918823EE
:10024000D1F30E0D1F1DC8018E199F090597BCF033
:100250000F900F900F900F900F90DF91CF911F9103
:100260000F91FF90EF900895B8010E94A10782932B
:10027000CB01DACF05E010E0021B130BE2CFF8014F
:1002800081918F0161E0805D0E947900DCCF843133
:1002900078F4623049F0633049F0613009F48064E9
:1002A00060E080680C9479008C5EFACF8C5AF8CFAD
:1002B0000895CF93C42F0E9447018C2F82958F7091
:1002C0008A3088F4805D61E00E9479000E945300CA
:1002D0008C2F8F708A3048F4805D61E00E94790035
:1002E000CF910C945300895CEECF895CF6CF419A94
:1002F0002FEF82E597E0215080409040E1F700C069
:10030000000088B192E0892788B9089590E297B9F2
:1003100098B9EFECF7E03197F1F700C0000088B131
:10032000892788B98FE694E90197F1F700C00000AA
:1003300008953A9A399A2FEF82E597E0215080404C
:100340009040E1F700C00000429A2FEF81EE94E068
:10035000215080409040E1F700C0000088B194E057
:10036000892788B92FEF82E597E02150804090409F
:10037000E1F700C00000419A2FEF81EE94E0215098
:1003800080409040E1F700C0000088B192E08927EA
:1003900088B90895DC011296FB0132960C964D91B6
:1003A0005D91219131914217530731F4A817B90794
:1003B000B1F780E090E008958FEF9FEF0895DF920E
:1003C000EF92FF920F931F93CF93DF9361307105EC
:1003D00051F58C010E5F1F4F38E0E32E32E0F32E13
:1003E000EC012C9644E0D42EF801619171918F01BB
:1003F000F70181917F0190E00E94CF07D8B8FFEF0D
:1004000020E782E0F15020408040E1F700C000008A
:10041000C017D10749F7DF91CF911F910F91FF903E
:10042000EF90DF90089562307105A9F78C010E5F9F
:100430001F4F22E1E22E22E0F22EEC012C96F80171
:10044000619171918F01F70181917F0190E00E948C
:10045000CF070C171D0799F7DECF8130910559F4AE
:10046000429A2FEF82E597E0215080409040E1F7DB
:1004700000C000000895019611F40C947701429891
:10048000089590E298B9EFE9FFE03197F1F700C0E5
:10049000000088B1892788B98FE99CE80197F1F7B6
:1004A00000C0000081E090E0089590E298B9EFEC80
:1004B000F7E03197F1F700C0000088B1892788B9CB
:1004C0008FE694E90197F1F700C0000080E090E02A
:1004D0000E942D0281E090E0089597B121E09227DB
:1004E00097B93A9A88B1822788B9089530992EC071
:1004F00060E081E00E9479002FEF89EF90E02150C9
:1005000080409040E1F700C000008AE191E00E9445
:10051000D4000E9441022FEF84E39CE021508040F0
:100520009040E1F700C000000E9455022FEF89E6DD
:1005300098E1215080409040E1F700C0000060E069
:1005400081E00E94790081E090E0089580E090E0F1
:100550000895CF92DF92EF92FF920F931F93CF9364
:10056000DF93C7E0D2E082E0C82E82E0D82E91E18E
:10057000E92E92E0F92E06E112E0899190E00E94C6
:10058000C907F60181936F01F70181917F0190E026
:100590000E94C907F80181938F01F2E0CC30DF0798
:1005A00061F7DF91CF911F910F91FF90EF90DF9056
:1005B000CF900895CF93C62F2A98880F8E770E94E8
:1005C00078048C2F0E9478042A9ACF9108952A9853
:1005D000880F8E7780680E94780480E00E947804FB
:1005E0002A9A08956FE081E00C94DA020E94F202E8
:1005F0006DE88AE20E94DA026EE38BE20E94DA0280
:100600006EE18CE20E94DA0260E08DE20E94DA0282
:1006100060E485E10E94DA026DE381E10E94DA0282
:1006200084E10E94E702982F937029F4682F636099
:1006300084E10C94DA0208953F924F925F926F9298
:100640007F928F929F92AF92BF92CF92DF92EF9262
:10065000FF920F931F93CF93DF93D82E5B01842ECD
:100660007901E8018CE0D81609F46BC0EEE0DE16E3
:1006700009F46CC0312CC12C84E00E94E702682F81
:100680006F7784E00E94DA028AE00E94E702682F16
:1006900060688AE00E94DA0260E081E00E94DA028B
:1006A0008501412C512C3201912CA12CB12C4814E4
:1006B00059046A047B0408F44EC06D2D81E00E9449
:1006C000DA028CE0D81208C08DE00E94E702682FA1
:1006D00060688DE00E94DA0240ED842E47E0942E9F
:1006E000A12CB12C132D116084E00E94E702082F89
:1006F000E1E08E1A9108A108B10819F0812F80233A
:1007000099F38DE00E94E702682F6F778DE00E94D9
:10071000DA0289288A288B2851F503E0802FDF919F
:10072000CF911F910F91FF90EF90DF90CF90BF90EE
:10073000AF909F908F907F906F905F904F903F9081
:10074000089570E3372EE7E7CE2E96CF50E1352E91
:1007500062E1C62E91CFF80161918F0189E00E947C
:10076000DA02FFEF4F1A5F0A6F0A7F0AA0CF86E016
:100770000E94E7028B7189F6FC2DF170CF2EC0220A
:10078000E9F102E08CE0D812C9CF8AE00E94E702CA
:10079000182F8CE00E94E702282F2770812F90E00D
:1007A00079F1019733E0880F991F3A95E1F7820FAD
:1007B000911D092E000CAA0BBB0B88839983AA8379
:1007C000BB83112319F1113108F010E1E701812CED
:1007D000912C5401C12ED12CE12CF12C8C149D04B0
:1007E000AE04BF0408F09ACF89E00E94E702899323
:1007F000EFEF8E1A9E0AAE0ABE0AF0CF01E0C2CF1A
:1008000023E0880F991F2A95E1F7D3CF11E0DECFBF
:10081000EF92FF920F931F93CF93DF9300D000D0FE
:10082000CDB7DEB7182F7B0167E08DE00E94DA02BA
:10083000F70110838E010F5F1F4F970141E0B70151
:100840008CE00E941C038130A1F449815A816B81A4
:100850007C81403151056105710559F40F900F906D
:100860000F900F90DF91CF911F910F91FF90EF901C
:10087000089583E0F3CFEF92FF920F931F93CF93EE
:10088000DF9300D000D0CDB7DEB77C0160E08DE013
:100890000E94DA0283E9F701808380E281838E017E
:1008A0000F5F1F4F970142E0B7018CE00E941C03CD
:1008B000813071F4F70197012C5F3F4F90E0419137
:1008C0009427E217F307D9F7F7012481921383E005
:1008D0000F900F900F900F90DF91CF911F910F917C
:1008E000FF90EF9008958CE284B981E58CBD089566
:1008F0008EBD0DB407FEFDCF8EB50895CF93DF9367
:10090000CDB7DEB76A970FB6F894DEBF0FBECDBF86
:100910000E94A9020E9486012FE788E391E02150FE
:1009200080409040E1F700C0000081E00E94A300F9
:1009300060E082E00E94470187E291E00E94D400DB
:100940000E9499010E947304AFEFB9E6E8E1A1505B
:10095000B040E040E1F700C0000060E081E00E94AC
:1009600079000E9441020E9455020E94F602FFEFA8
:100970002EE984E2F15020408040E1F700C0000001
:1009800060E081E00E947900429A9FE7A2E3B2E032
:100990009150A040B040E1F700C0000088B194E061
:1009A000892788B9EFE5FAEE3197F1F700C000002A
:1009B000E12CF12C00E010E04E01F6E08F0E911CCE
:1009C00044244394512C0E94A902BE016F5F7F4FC3
:1009D00082E50E940804D82E482F60E080E00E9443
:1009E00059010E94760260E081E00E947900A1E056
:1009F000EA16F10409F41AC10130110509F4ABC17A
:100A0000F1E0DF129BC2CE0101960E943B048130CF
:100A100009F071C2CE0101967C01D7018D917D0153
:100A20006FEF7FEF90E00E94FB00E814F904A9F754
:100A3000FE0131966F013F01AFE5BAEE1197F1F774
:100A400000C00000F30181913F016FEF7FEF90E064
:100A50000E94FB008614970479F7FFEF20E782E0FD
:100A6000F15020408040E1F700C0000060E081E0EC
:100A70000E947900A0E1B1E0BA8FA98F2BE0222E6D
:100A800021E0322EE6E0F1E0FE8BED8B86E192E094
:100A90009A8B898BA2E0B2E0B88FAF8BE5E1F1E0F1
:100AA000FC8BEB8B7801580161E080E00E944701EC
:100AB000D6018C916FEF7FEF90E00E94FB00F60172
:100AC0008081A98DBA8D9D91BA8FA98F891779F0F0
:100AD000EB89FC899081891751F0AF89B88D9C9181
:100AE000891729F0E989FA89908189130DC261E09B
:100AF00080E00E944701D6018C916FEF7FEF90E07C
:100B00000E94FB008CEC91E00E94D400BFE7E8E378
:100B1000F1E0B150E040F040E1F700C0000060E0DB
:100B200081E00E9479005092050140920401FFEF9C
:100B3000CF1ADF0A2FEF221A320A8D899E89019679
:100B40009E8B8D8BA989BA891196BA8BA98BEF8957
:100B5000F88D3196F88FEF8B8B899C8901969C8B51
:100B60008B8B6C147D0409F09FCF809104019091D0
:100B70000501019749F560E081E00E9479009FEF4F
:100B8000A4E3BCE09150A040B040E1F700C00000F9
:100B900082ED91E00E94D40081E090E00E942D025D
:100BA0000E944102E5E0F0E0F0930501E0930401CA
:100BB000FFEF29E688E1F15020408040E1F700C0D6
:100BC00000000E9455027801809104019091050176
:100BD000019611F5B1E0AB16B104F1F060E081E0EF
:100BE0000E947900EFEFF0E722E0E150F040204072
:100BF000E1F700C0000081EE91E00E94D4000E9465
:100C000077018FEF90E7A2E081509040A040E1F79C
:100C100000C000000E94770160E080E00E94470170
:100C20008FEE91E00E94D4008501CDCE60E081E09E
:100C30000E94790080E491E00E94D4002FEF87E8C1
:100C400093E1215080409040E1F700C00000BE01D8
:100C50006F5F7F4F82E50E94080460E081E00E94A0
:100C6000790084E591E00E94D40061E080E00E9478
:100C7000470183E691E00E94D400BE016F5F7F4F81
:100C800082E50E940804813009F05BC0CE01019624
:100C90000E943B04813009F054C0FE013196A6E069
:100CA000B1E091918D91E815F905D9F7981347C0F6
:100CB00060E081E00E94790084E791E00E94D40026
:100CC000AFEFB9E6E8E1A150B040E040E1F700C085
:100CD000000037E0E32E32E0F32E41E1C42E42E083
:100CE000D42ED7018D917D0160E070E090E00E94EC
:100CF000CF07F60181916F0160E070E090E00E9403
:100D0000CF07FCE0EF16F2E0FF0659F7509203011F
:100D10004092020160E081E00E94790082E891E067
:100D20000E94D4002FEF82E597E021508040904050
:100D3000E1F700C000005092030140920201E12C53
:100D4000F12C0E94A902BE016F5F7F4F82E50E94D5
:100D50000804D82E4CCEBE016F5F7F4F82E50E9403
:100D6000080460E081E00E9479008EE891E00E9432
:100D7000D40061E080E00E9447018BE991E00E948D
:100D8000D400BE016F5F7F4F82E50E940804D82E19
:100D900080910201909103010397B4F01093030135
:100DA0000093020160E081E00E94790085EA91E011
:100DB0000E94D400BFEFE9E6F8E1B150E040F04016
:100DC000E1F700C00000870121E0D21264C0CE012B
:100DD00001960E943B04813009F05DC0CE0101966E
:100DE0006C0122E032E0E6E1F2E05C01D5018D9198
:100DF0005D01D9019D919D01891719F09081891399
:100E000001C087013196A814B90481F760E081E040
:100E10000E947900BFEFE3ECF9E0B150E040F04010
:100E2000E1F700C000008091020190910301813040
:100E30009105D9F50130110571F560E081E00E945E
:100E400079008AEA91E00E94D4002FEF89E698E1C8
:100E5000215080409040E1F700C0000007E012E020
:100E6000D6016D916D01F80181918F0170E090E0E4
:100E70000E94CF07AC14BD0499F7809102019091B4
:100E800003010196909303018093020160E081E0E9
:100E90000E94790087010E94A902BE016F5F7F4F07
:100EA00082E50E940804D82EA7CD0297A1F7013051
:100EB000110589F760E081E00E94790088EB91E0FC
:100EC0000E94D400FFEF29E688E1F15020408040E5
:100ED000E1F700C0000001E112E0D6016D916D0163
:100EE000F80181918F0170E090E00E94CF07CA1451
:100EF000DB0499F7C2CF61E080E00E94470186ECF5
:100F000091E00E94D40094CDD1019C91891771F099
:100F1000ED89FE899081891769F08FEF9FEF90939B
:100F20000501809304017801580101CEAA24A394FD
:100F3000B12CFDCDEE24E394F12CF9CD78015801CC
:100F40006BCE97FB072E16F4009407D077FD09D0DF
:100F50000E94B50707FC05D03EF4909581959F4F00
:100F60000895709561957F4F0895AA1BBB1B51E1B1
:100F700007C0AA1FBB1FA617B70710F0A61BB70B09
:100F8000881F991F5A95A9F780959095BC01CD01AE
:100F90000895A8E1B0E042E050E00C94D6070E942A
:100FA000E407272F0C94E507DC01CB01FC01F9993C
:100FB000FECF06C0F2BDE1BDF89A319600B40D92A5
:100FC00041505040B8F70895262FF999FECF1FBA27
:100FD00092BD81BD20BD0FB6F894FA9AF99A0FBE62
:080FE00001960895F894FFCF7B
:100FE80005000100FEFF9192056B6D79F1B53B0696
:100FF80040EEDF87F6AE442D5B9C627574746F6EAD
:10100800207072657373004543454E31333130208B
:1010180052464944205461672052656164657200F4
:1010280064656C65746520746167206163697661C5
:10103800746564005363616E20616761696E207432
:101048006F200064656C65746520616C6C20746148
:1010580067732E0052656D6F76696E6720546167FD
:10106800730054616773204572617365640053634C
:10107800616E2074616720746F200062652061646E
:101088006465642E0046756C6C00414444494E47C3
:101098002043415244203100414444494E472043B3
:1010A8004152442032004572726F72004D415443E0
:1010B8004800416363657373204772616E746564A9
:1010C800004163636573732044656E69656400500D
:0C10D800726573656E742054616700003F
:00000001FF
