:100000000C9434000C9451000C9451000C94510049
:100010000C9451000C9451000C9451000C9451001C
:100020000C9451000C9451000C9451000C9451000C
:100030000C9451000C9451000C9451000C945100FC
:100040000C9451000C9451000C9451000C945100EC
:100050000C9451000C9451000C9451000C945100DC
:100060000C9451000C94510011241FBECFEFD8E026
:10007000DEBFCDBF11E0A0E0B1E0E6E1FDE002C0EF
:1000800005900D92AE38B107D9F721E0AEE8B1E0A6
:1000900001C01D92AC3BB207E1F70E9436040C94FC
:1000A00089060C9400008AB1807F8AB95E9A5D98B7
:1000B00000C000C05C9A00C000C089B18295807FFA
:1000C00000C000C05C9892E09A95F1F700C05C9A7D
:1000D00000C000C099B100C000C05C9892E09A9541
:1000E000F1F700C087FDE6CF5E988AB18F608AB9CC
:1000F0000895382F32953F70282F2F70611121C03D
:100100005D9800C000C05C9A9BB1907F932B9BB917
:1001100082E08A95F1F700C05C9882E08A95F1F759
:1001200000C05C9A8BB1807F822B8BB982E08A956C
:10013000F1F700C05C9882E08A95F1F700C00C945A
:1001400053005D9ADECFCF93C82F8FE59AEE0197CB
:10015000F1F700C000008AB18F608AB9549A559AAD
:10016000569A8BB1807F8BB95C985E985D9800C081
:1001700000005C9A599A92E09A95F1F700C05C9859
:1001800082E08A95F1F700C00E94530060E08C2F56
:100190008C600E94790060E088E20E94790060E053
:1001A00080E8CF910C9479000F931F93CF93DF9346
:1001B000EC018881811105C0DF91CF911F910F91D2
:1001C0000895853299F48E010F5F1F4F8981805306
:1001D00061E0883028F40E947900E8012196E9CF97
:1001E00085E20E94790061E08981F5CF61E00E949B
:1001F00079008E01F2CFEF92FF920F931F93CF936E
:10020000DF9300D000D01F92CDB7DEB79B01AE01C7
:100210004F5F5F4F7A0145E0F70111924A95E9F788
:10022000FE0136960AE010E00097F1F42F3FFFEF51
:100230003F0701F5F7018F010E191F0981918823EE
:10024000D1F30E0D1F1DC8018E199F090597BCF033
:100250000F900F900F900F900F90DF91CF911F9103
:100260000F91FF90EF900895B8010E943806829395
:10027000CB01DACF05E010E0021B130BE2CFF8014F
:1002800081918F0161E0805D0E947900DCCF843133
:1002900078F4623049F0633049F0613009F48064E9
:1002A00060E080680C9479008C5EFACF8C5AF8CFAD
:1002B0000895CF93C42F0E9447018C2F82958F7091
:1002C0008A3088F4805D61E00E9479000E945300CA
:1002D0008C2F8F708A3048F4805D61E00E94790035
:1002E000CF910C945300895CEECF895CF6CF90E2FD
:1002F00097B998B9EFECF7E03197F1F700C000003B
:1003000088B1892788B98FE694E90197F1F700C091
:100310000000089594E097B998B92FEF30E782E094
:10032000215030408040E1F700C0000088B18927AB
:1003300088B90895DC011296FB0132960C964D9116
:100340005D91219131914217530731F4A817B907F4
:10035000B1F780E090E008958FEF9FEF0895DF926E
:10036000EF92FF920F931F93CF93DF93613071054C
:1003700051F58C010E5F1F4F3AE9E32E31E0F32E69
:10038000EC012C9644E0D42EF801619171918F011B
:10039000F70181917F0190E00E946606D8B8FFEFD7
:1003A00020E782E0F15020408040E1F700C00000EB
:1003B000C017D10749F7DF91CF911F910F91FF909F
:1003C000EF90DF90089562307105A9F78C010E5F00
:1003D0001F4F24EAE22E21E0F22EEC012C96F801C8
:1003E000619171918F01F70181917F0190E00E94ED
:1003F00066060C171D0799F7DECF90E298B9EFE972
:10040000FFE03197F1F700C0000088B1892788B973
:100410008FE99CE80197F1F700C0000081E090E0CF
:10042000089590E298B9EFECF7E03197F1F700C04A
:10043000000088B1892788B98FE694E90197F1F720
:1004400000C0000081E090E0089597B128E0922775
:1004500097B93A9A88B1822788B9089533992EC0FE
:1004600060E081E00E9479002FEF89EF90E0215059
:1004700080409040E1F700C000008AE191E00E94D6
:10048000D4000E94FD012FEF84E39CE021508040C6
:100490009040E1F700C000000E9411022FEF89E6B2
:1004A00098E1215080409040E1F700C0000060E0FA
:1004B00081E00E94790081E090E0089580E090E082
:1004C0000895CF92DF92EF92FF920F931F93CF93F5
:1004D000DF93C9E9D1E084E9C82E81E0D82E93EA00
:1004E000E92E91E0F92E08EA11E0899190E00E944E
:1004F0006006F60181936F01F70181917F0190E021
:100500000E946006F80181938F01F1E0CE39DF0788
:1005100061F7DF91CF911F910F91FF90EF90DF90E6
:10052000CF900895CF93C62F2A98880F8E770E9478
:1005300030048C2F0E9430042A9ACF9108952A9873
:10054000880F8E7780680E94300480E00E9430041B
:100550002A9A08956FE081E00C9492020E94AA0208
:100560006DE88AE20E9492026EE38BE20E949202A0
:100570006EE18CE20E94920260E08DE20E949202A3
:1005800060E485E10E9492026DE381E10E949202A3
:1005900084E10E949F02982F937029F4682F636072
:1005A00084E10C94920208953F924F925F926F9271
:1005B0007F928F929F92AF92BF92CF92DF92EF92F3
:1005C000FF920F931F93CF93DF93D82E5B01842E5E
:1005D0007901E8018CE0D81609F46BC0EEE0DE1674
:1005E00009F46CC0312CC12C84E00E949F02682F5A
:1005F0006F7784E00E9492028AE00E949F02682F37
:1006000060688AE00E94920260E081E00E949202AB
:100610008501412C512C3201912CA12CB12C481474
:1006200059046A047B0408F44EC06D2D81E00E94D9
:1006300092028CE0D81208C08DE00E949F02682FC1
:1006400060688DE00E94920240ED842E47E0942E77
:10065000A12CB12C132D116084E00E949F02082F61
:10066000E1E08E1A9108A108B10819F0812F8023CA
:1006700099F38DE00E949F02682F6F778DE00E94B2
:10068000920289288A288B2851F503E0802FDF9178
:10069000CF911F910F91FF90EF90DF90CF90BF907F
:1006A000AF909F908F907F906F905F904F903F9012
:1006B000089570E3372EE7E7CE2E96CF50E1352E22
:1006C00062E1C62E91CFF80161918F0189E00E940D
:1006D0009202FFEF4F1A5F0A6F0A7F0AA0CF86E0EF
:1006E0000E949F028B7189F6FC2DF170CF2EC022E3
:1006F000E9F102E08CE0D812C9CF8AE00E949F02A3
:10070000182F8CE00E949F02282F2770812F90E0E5
:1007100079F1019733E0880F991F3A95E1F7820F3D
:10072000911D092E000CAA0BBB0B88839983AA8309
:10073000BB83112319F1113108F010E1E701812C7D
:10074000912C5401C12ED12CE12CF12C8C149D0440
:10075000AE04BF0408F09ACF89E00E949F028993FB
:10076000EFEF8E1A9E0AAE0ABE0AF0CF01E0C2CFAA
:1007700023E0880F991F2A95E1F7D3CF11E0DECF50
:10078000EF92FF920F931F93CF93DF9300D000D08F
:10079000CDB7DEB7182F7B0167E08DE00E94920293
:1007A000F70110838E010F5F1F4F970141E0B701E2
:1007B0008CE00E94D4028130A1F449815A816B817E
:1007C0007C81403151056105710559F40F900F90FE
:1007D0000F900F90DF91CF911F910F91FF90EF90AD
:1007E000089583E0F3CFEF92FF920F931F93CF937F
:1007F000DF9300D000D0CDB7DEB77C0160E08DE0A4
:100800000E94920283E9F701808380E281838E0156
:100810000F5F1F4F970142E0B7018CE00E94D402A6
:10082000813071F4F70197012C5F3F4F90E04191C7
:100830009427E217F307D9F7F7012481921383E095
:100840000F900F900F900F90DF91CF911F910F910C
:10085000FF90EF9008958CE284B981E58CBD0895F6
:100860008EBD0DB407FEFDCF8EB50895CF93DF93F7
:10087000CDB7DEB764970FB6F894DEBF0FBECDBF1D
:100880000E948A010E9461020E9477012FE788E39B
:1008900091E0215080409040E1F700C0000081E0ED
:1008A0000E94A30060E082E00E94470187E291E09D
:1008B0000E94D4000E942B04AFEFB9E6E8E1A150FA
:1008C000B040E040E1F700C0000060E081E00E943D
:1008D00079000E94FD010E9411020E94AE02FFEF0A
:1008E0002EE984E2F15020408040E1F700C0000092
:1008F00060E081E00E947900429A9FE7A2E3B2E0C3
:100900009150A040B040E1F700C0000088B194E0F1
:10091000892788B9EFE5FAEE3197F1F700C00000BA
:1009200000E010E05E01F6E0AF0EB11C0E94610233
:10093000BE016F5F7F4F82E50E94C003F82E482FF3
:1009400060E080E00E9459010E942E0260E081E098
:100950000E9479000130110509F4F1C0F1E0FF12A5
:10096000E5C0CE0101960E94F303813009F068C111
:10097000CE0101967C01D7018D917D016FEF7FEF54
:1009800090E00E94FB00EA14FB04A9F7FE013196F7
:100990007F016F01AFE5BAEE1197F1F700C00000DB
:1009A000F60181916F016FEF7FEF90E00E94FB00F5
:1009B000CA14DB0479F7FFEF20E782E0F150204012
:1009C0008040E1F700C0000060E081E00E94790013
:1009D000A0E1B1E0BC8BAB8B86E0882E81E0982E45
:1009E0009BE0692E91E0792E28EA422E21E0522EDA
:1009F00034E9232E31E0332EE5E1F1E0FA8BE98B87
:100A000061E080E00E944701D7018C916FEF7FEF9A
:100A100090E00E94FB00F7018081AB89BC899D9129
:100A2000BC8BAB8B891769F0E989FA8990818917AA
:100A300041F0D1019C91891721F0F2019081891335
:100A400008C161E080E00E944701D7018C916FEFFF
:100A50007FEF90E00E94FB0089E691E00E94D400C5
:100A6000BFE7E8E3F1E0B150E040F040E1F700C05B
:100A7000000060E081E00E94790081E090E09093C6
:100A8000050180930401FFEFEF1AFF0A2FEF821A8E
:100A9000920A8FEF681A780A9FEF491A590AAFEF46
:100AA0002A1A3A0AE989FA893196FA8BE98BEC1409
:100AB000FD0409F0A5CF80910401909105010197F3
:100AC000C9F460E081E00E947900FFEF24E38CE04C
:100AD000F15020408040E1F700C000008FE691E037
:100AE0000E94D4000E94FD01A5E0B0E0B093050192
:100AF000A093040180910401909105010196B1F445
:100B00000130110599F060E081E00E947900EFEF7B
:100B1000F0E722E0E150F0402040E1F700C00000A3
:100B200087E791E00E94D4000E94110260E080E01B
:100B30000E94470181E891E00E94D400F7CEBE01F7
:100B40006F5F7F4F82E50E94C00360E081E00E94FA
:100B5000790080E491E00E94D40061E080E00E948E
:100B600047018DE491E00E94D400BE016F5F7F4F8A
:100B700082E50E94C003813009F058C0CE01019681
:100B80000E94F303813009F051C0CE0101966C013F
:100B900024E931E0E8EAF1E07C01D7018D917D01A3
:100BA000D9019D919D01891719F09081891302C087
:100BB00000E010E03196EA14FB0479F7809102011D
:100BC00090910301019791F50130110579F560E0ED
:100BD00081E00E94790087E591E00E94D400BFEF98
:100BE000E9E6F8E1B150E040F040E1F700C0000074
:100BF00009E911E0D6016D916D01F80181918F0134
:100C000070E090E00E946606CE14DF0499F78091B0
:100C100002019091030101969093030180930201D8
:100C200060E081E00E94790000E010E00E94610233
:100C3000BE016F5F7F4F82E50E94C003F82E8ACE0F
:100C400061E080E00E94470183E691E00E94D400C9
:100C50009DCED3019C91891741F0F40190818917B1
:100C600009F411CF8FEF9FEF0ACF01E010E023CFFF
:100C700097FB072E16F4009407D077FD09D00E9449
:100C80004C0607FC05D03EF4909581959F4F089542
:100C9000709561957F4F0895AA1BBB1B51E107C05A
:100CA000AA1FBB1FA617B70710F0A61BB70B881FFC
:100CB000991F5A95A9F780959095BC01CD0108958B
:100CC000A8E1B0E042E050E00C946D060E947B0683
:100CD000272F0C947C06DC01CB01FC01F999FECF97
:100CE00006C0F2BDE1BDF89A319600B40D924150B4
:100CF0005040B8F70895262FF999FECF1FBA92BD3C
:100D000081BD20BD0FB6F894FA9AF99A0FBE0196EC
:060D10000895F894FFCFE6
:100D160005000100FEFF9192056B6D79F1B53B066A
:100D260040EEDF87F6AE442D5B9C627574746F6E81
:100D3600207072657373004543454E313331302060
:100D460052464944205461672052656164657200C9
:100D56005363616E2074616720746F2000626520A2
:100D660061646465642E00414444494E4720434112
:100D76005244004572726F72004D4154434800530D
:100D8600554343455353006E6F742076616C696416
:0E0D96000050726573656E7420546167000032
:00000001FF
