:100000000C9434000C9451000C9451000C94510049
:100010000C9451000C9451000C9451000C9451001C
:100020000C9451000C9451000C9451000C9451000C
:100030000C9451000C9451000C9451000C945100FC
:100040000C9451000C9451000C9451000C945100EC
:100050000C9451000C9451000C9451000C945100DC
:100060000C9451000C94510011241FBECFEFD8E026
:10007000DEBFCDBF11E0A0E0B1E0E6E6FAE002C0ED
:1000800005900D92A03AB107D9F721E0A0EAB1E0BE
:1000900001C01D92A03EB207E1F70E9464030C94D8
:1000A00031050C9400008AB1807F8AB95E9A5D9810
:1000B00000C000C05C9A00C000C089B18295807FFA
:1000C00000C000C05C9892E09A95F1F700C05C9A7D
:1000D00000C000C099B100C000C05C9892E09A9541
:1000E000F1F700C087FDE6CF5E988AB18F608AB9CC
:1000F0000895382F32953F70282F2F70611121C03D
:100100005D9800C000C05C9A9BB1907F932B9BB917
:1001100082E08A95F1F700C05C9882E08A95F1F759
:1001200000C05C9A8BB1807F822B8BB982E08A956C
:10013000F1F700C05C9882E08A95F1F700C00C945A
:1001400053005D9ADECFCF93C82F8FE59AEE0197CB
:10015000F1F700C000008AB18F608AB9549A559AAD
:10016000569A8BB1807F8BB95C985E985D9800C081
:1001700000005C9A599A92E09A95F1F700C05C9859
:1001800082E08A95F1F700C00E94530060E08C2F56
:100190008C600E94790060E088E20E94790060E053
:1001A00080E8CF910C9479000F931F93CF93DF9346
:1001B000EC018881811105C0DF91CF911F910F91D2
:1001C0000895853299F48E010F5F1F4F8981805306
:1001D00061E0883028F40E947900E8012196E9CF97
:1001E00085E20E94790061E08981F5CF61E00E949B
:1001F00079008E01F2CFEF92FF920F931F93CF936E
:10020000DF9300D000D01F92CDB7DEB79B01AE01C7
:100210004F5F5F4F7A0145E0F70111924A95E9F788
:10022000FE0136960AE010E00097F1F42F3FFFEF51
:100230003F0701F5F7018F010E191F0981918823EE
:10024000D1F30E0D1F1DC8018E199F090597BCF033
:100250000F900F900F900F900F90DF91CF911F9103
:100260000F91FF90EF900895B8010E9409058293C5
:10027000CB01DACF05E010E0021B130BE2CFF8014F
:1002800081918F0161E0805D0E947900DCCF843133
:1002900078F4623049F0633049F0613009F48064E9
:1002A00060E080680C9479008C5EFACF8C5AF8CFAD
:1002B0000895CF93C42F0E9447018C2F82958F7091
:1002C0008A3088F4805D61E00E9479000E945300CA
:1002D0008C2F8F708A3048F4805D61E00E94790035
:1002E000CF910C945300895CEECF895CF6CF90E2FD
:1002F00097B998B9EFECF7E03197F1F700C000003B
:1003000088B1892788B98FE694E90197F1F700C091
:100310000000089581E090E001C0880F6A95EAF737
:1003200088B98FE99FE00197F1F700C0000088B11C
:1003300090E2892788B9EFE9FCE83197F1F700C02E
:100340000000FFEF27EA31E6F15020403040E1F7AE
:1003500000C0000098B9EFECF7E03197F1F700C06A
:10036000000088B1892788B98FE694E90197F1F7F1
:1003700000C0000081E090E0089581E090E00895E1
:10038000CF93C62F2A98880F8E770E945E038C2FFA
:100390000E945E032A9ACF9108952A98880F8E773B
:1003A00080680E945E0380E00E945E032A9A08959E
:1003B0006FE081E00C94C0010E94D8016DE88AE2F0
:1003C0000E94C0016EE38BE20E94C0016EE18CE2EC
:1003D0000E94C00160E08DE20E94C00160E485E1FE
:1003E0000E94C0016DE381E10E94C00184E10E948E
:1003F000CD01982F937029F4682F636084E10C94E9
:10040000C00108953F924F925F926F927F928F92B8
:100410009F92AF92BF92CF92DF92EF92FF920F9393
:100420001F93CF93DF93D82E5B01842E7901E801CF
:100430008CE0D81609F46BC0EEE0DE1609F46CC04F
:10044000312CC12C84E00E94CD01682F6F7784E0AD
:100450000E94C0018AE00E94CD01682F60688AE096
:100460000E94C00160E081E00E94C0018501412C32
:10047000512C3201912CA12CB12C481459046A043E
:100480007B0408F44EC06D2D81E00E94C0018CE019
:10049000D81208C08DE00E94CD01682F60688DE001
:1004A0000E94C00140ED842E47E0942EA12CB12C77
:1004B000132D116084E00E94CD01082FE1E08E1A17
:1004C0009108A108B10819F0812F802399F38DE0DC
:1004D0000E94CD01682F6F778DE00E94C0018928AE
:1004E0008A288B2851F503E0802FDF91CF911F914F
:1004F0000F91FF90EF90DF90CF90BF90AF909F90C3
:100500008F907F906F905F904F903F90089570E331
:10051000372EE7E7CE2E96CF50E1352E62E1C62E7C
:1005200091CFF80161918F0189E00E94C001FFEF36
:100530004F1A5F0A6F0A7F0AA0CF86E00E94CD01A2
:100540008B7189F6FC2DF170CF2EC022E9F102E00B
:100550008CE0D812C9CF8AE00E94CD01182F8CE020
:100560000E94CD01282F2770812F90E079F101970B
:1005700033E0880F991F3A95E1F7820F911D092EFC
:10058000000CAA0BBB0B88839983AA83BB8311231E
:1005900019F1113108F010E1E701812C912C54017F
:1005A000C12ED12CE12CF12C8C149D04AE04BF047F
:1005B00008F09ACF89E00E94CD018993EFEF8E1A5F
:1005C0009E0AAE0ABE0AF0CF01E0C2CF23E0880F38
:1005D000991F2A95E1F7D3CF11E0DECFEF92FF927A
:1005E0000F931F93CF93DF9300D000D0CDB7DEB72A
:1005F000182F7B0167E08DE00E94C001F701108396
:100600008E010F5F1F4F970141E0B7018CE00E9400
:1006100002028130A1F449815A816B817C81403191
:1006200051056105710559F40F900F900F900F90CF
:10063000DF91CF911F910F91FF90EF90089583E08C
:10064000F3CFEF92FF920F931F93CF93DF9300D0DE
:1006500000D0CDB7DEB77C0160E08DE00E94C00124
:1006600083E9F701808380E281838E010F5F1F4F52
:10067000970142E0B7018CE00E940202813071F4E0
:10068000F70197012C5F3F4F90E041919427E217CB
:10069000F307D9F7F7012481921383E00F900F90AD
:1006A0000F900F90DF91CF911F910F91FF90EF90DE
:1006B00008958CE284B981E58CBD08958EBD0DB49A
:1006C00007FEFDCF8EB50895CF93DF93CDB7DEB78C
:1006D00060970FB6F894DEBF0FBECDBF67B188B18B
:1006E00070E045E050E090E00E9477012FE788E35A
:1006F00091E0215080409040E1F700C0000081E08F
:100700000E94A30060E082E00E94470182E191E044
:100710000E94D4000E945903EFEFF9E628E1E1506E
:10072000F0402040E1F700C0000060E081E00E945E
:10073000790088B165E070E090E00E948A010E9433
:10074000DC0187E30E94CD01823909F042C160E0FB
:1007500082E00E94470187E291E00E94D40061E0BC
:1007600084E00E94470186E391E00E94D40082E089
:100770000E94CD01682F606282E00E94C00183E088
:100780000E94CD01682F606883E00E94C0018FEF56
:100790009EE9E4E281509040E040E1F700C00000B3
:1007A00060E081E00E9479003E01F6E06F0E711C6E
:1007B000AA24A394B12C4E0129E0820E911CBE0103
:1007C0006F5F7F4F82E50E94EE02182F482F60E096
:1007D00080E00E945901113009F0E9C0CE01019674
:1007E0000E942103813009F004C18FE59AEE019740
:1007F000F1F700C0000060E081E00E9479008E0106
:100800000F5F1F4FF80181918F016FEF7FEF90E035
:100810000E94FB0008151905A9F761E080E00E941D
:10082000470184E691E00E94D400FFEF29E688E1C9
:10083000F15020408040E1F700C0000060E081E01E
:100840000E9479008E010F5F1F4F78018FE59AEEAD
:100850000197F1F700C00000F70181917F016FEF70
:100860007FEF90E00E94FB00E614F70479F7FFEFBA
:1008700020E782E0F15020408040E1F700C0000016
:1008800060E081E00E94790082E0C82E81E0D82EED
:1008900061E080E00E944701F80180816FEF7FEF07
:1008A00090E00E94FB00F60181916F01F8019081B8
:1008B0009813A8C061E080E00E944701F8018081A0
:1008C0006FEF7FEF90E00E94FB0082E791E00E94D3
:1008D000D400FFE728E381E0F15020408040E1F7B9
:1008E00000C0000060E081E00E947900B092010148
:1008F000A09200010F5F1F4F0E151F0549F6809152
:100900000001909101010197E9F460E081E00E940B
:1009100079009FEFE4E3FCE09150E040F040E1F724
:1009200000C0000088E791E00E94D40088B165E033
:1009300070E090E00E948A0185E090E090930101D0
:10094000809300018091000190910101019689F44A
:1009500060E081E00E9479008FEF90E7E2E0815053
:100960009040E040E1F700C0000080E891E00E9484
:10097000D400FFE72FE482E1F15020408040E1F70E
:1009800000C0000060E081E00E9479008AE891E008
:100990000E94D4009FE7EAE1F6E09150E040F04089
:1009A000E1F700C0000060E081E00E94790082E988
:1009B00091E00E94D4002FEF89E698E12150804019
:1009C0009040E1F700C0000060E081E00E94790003
:1009D000F6CE805960E0823030F482E00E94470118
:1009E0008FE391E0BACE80E00E9447018EE491E06F
:1009F000BCCE61E080E00E9447018EE591E00E945C
:100A0000D4000BCF8FEF9FEF9093010180930001F3
:100A100071CF97FB072E16F4009407D077FD09D00D
:100A20000E941D0507FC05D03EF4909581959F4FCF
:100A30000895709561957F4F0895AA1BBB1B51E1E6
:100A400007C0AA1FBB1FA617B70710F0A61BB70B3E
:100A5000881F991F5A95A9F780959095BC01CD01E3
:060A60000895F894FFCF99
:100A6600FEFFAE442D5B9C0000000000000000006D
:100A760000004543454E3133313020446F6F7220BC
:100A86004F70656E6572004D49464152452052438E
:100A96003532327632004465746563746564004DA0
:100AA60049464152452052433532327631004E6F27
:100AB6002072656164657220666F756E64004572AA
:100AC600726F7200424F555420544F20434845439D
:100AD6004B004D415443480053554343455353003F
:100AE6006E6F742076616C696400434845434B45DC
:100AF600440070726573656E7420636172640000F1
:00000001FF
