:100000000C9434000C9451000C9451000C94510049
:100010000C9451000C9451000C9451000C9451001C
:100020000C9451000C9451000C9451000C9451000C
:100030000C9451000C9451000C9451000C945100FC
:100040000C9451000C9451000C9451000C945100EC
:100050000C9451000C9451000C9451000C945100DC
:100060000C9451000C94510011241FBECFEFD8E026
:10007000DEBFCDBF11E0A0E0B1E0E0E4FAE002C0F5
:1000800005900D92AA38B107D9F721E0AAE8B1E0AE
:1000900001C01D92AA3CB207E1F70E9448030C94EC
:1000A0001E050C9400008AB1807F8AB95E9A5D9823
:1000B00000C000C05C9A00C000C089B18295807FFA
:1000C00000C000C05C9892E09A95F1F700C05C9A7D
:1000D00000C000C099B100C000C05C9892E09A9541
:1000E000F1F700C087FDE6CF5E988AB18F608AB9CC
:1000F0000895382F32953F70282F2F70611121C03D
:100100005D9800C000C05C9A9BB1907F932B9BB917
:1001100082E08A95F1F700C05C9882E08A95F1F759
:1001200000C05C9A8BB1807F822B8BB982E08A956C
:10013000F1F700C05C9882E08A95F1F700C00C945A
:1001400053005D9ADECFCF93C82F8FE59AEE0197CB
:10015000F1F700C000008AB18F608AB9549A559AAD
:10016000569A8BB1807F8BB95C985E985D9800C081
:1001700000005C9A599A92E09A95F1F700C05C9859
:1001800082E08A95F1F700C00E94530060E08C2F56
:100190008C600E94790060E088E20E94790060E053
:1001A00080E8CF910C9479000F931F93CF93DF9346
:1001B000EC018881811105C0DF91CF911F910F91D2
:1001C0000895853299F48E010F5F1F4F8981805306
:1001D00061E0883028F40E947900E8012196E9CF97
:1001E00085E20E94790061E08981F5CF61E00E949B
:1001F00079008E01F2CFEF92FF920F931F93CF936E
:10020000DF9300D000D01F92CDB7DEB79B01AE01C7
:100210004F5F5F4F7A0145E0F70111924A95E9F788
:10022000FE0136960AE010E00097F1F42F3FFFEF51
:100230003F0701F5F7018F010E191F0981918823EE
:10024000D1F30E0D1F1DC8018E199F090597BCF033
:100250000F900F900F900F900F90DF91CF911F9103
:100260000F91FF90EF900895B8010E94F6048293D9
:10027000CB01DACF05E010E0021B130BE2CFF8014F
:1002800081918F0161E0805D0E947900DCCF843133
:1002900078F4623049F0633049F0613009F48064E9
:1002A00060E080680C9479008C5EFACF8C5AF8CFAD
:1002B0000895CF93C42F0E9447018C2F82958F7091
:1002C0008A3088F4805D61E00E9479000E945300CA
:1002D0008C2F8F708A3048F4805D61E00E94790035
:1002E000CF910C945300895CEECF895CF6CF80E20D
:1002F00088B9EFE9FFE03197F1F700C0000098B14D
:10030000982798B9EFE9FCE83197F1F700C00000B1
:10031000FFEF27EA31E6F15020403040E1F700C01E
:10032000000088B9EFECF7E03197F1F700C000006A
:1003300098B1892788B98FE694E90197F1F700C051
:10034000000081E090E00895CF93C62F2A98880F8F
:100350008E770E9442038C2F0E9442032A9ACF91EB
:1003600008952A98880F8E7780680E94420380E063
:100370000E9442032A9A08956FE081E00C94A40140
:100380000E94BC016DE88AE20E94A4016EE38BE248
:100390000E94A4016EE18CE20E94A40160E08DE263
:1003A0000E94A40160E485E10E94A4016DE381E163
:1003B0000E94A40184E10E94B101982F937029F456
:1003C000682F636084E10C94A40108953F924F92DA
:1003D0005F926F927F928F929F92AF92BF92CF92D5
:1003E000DF92EF92FF920F931F93CF93DF93D82E5C
:1003F0005B01842E7901E8018CE0D81609F46BC00A
:10040000EEE0DE1609F46CC0312CC12C84E00E94B1
:10041000B101682F6F7784E00E94A4018AE00E94F6
:10042000B101682F60688AE00E94A40160E081E069
:100430000E94A4018501412C512C3201912CA12C48
:10044000B12C481459046A047B0408F44EC06D2D85
:1004500081E00E94A4018CE0D81208C08DE00E94C7
:10046000B101682F60688DE00E94A40140ED842EE8
:1004700047E0942EA12CB12C132D116084E00E9432
:10048000B101082FE1E08E1A9108A108B10819F016
:10049000812F802399F38DE00E94B101682F6F773F
:1004A0008DE00E94A40189288A288B2851F503E059
:1004B000802FDF91CF911F910F91FF90EF90DF90F0
:1004C000CF90BF90AF909F908F907F906F905F90F4
:1004D0004F903F90089570E3372EE7E7CE2E96CFEA
:1004E00050E1352E62E1C62E91CFF80161918F0166
:1004F00089E00E94A401FFEF4F1A5F0A6F0A7F0A8A
:10050000A0CF86E00E94B1018B7189F6FC2DF170BD
:10051000CF2EC022E9F102E08CE0D812C9CF8AE0E8
:100520000E94B101182F8CE00E94B101282F277082
:10053000812F90E079F1019733E0880F991F3A9568
:10054000E1F7820F911D092E000CAA0BBB0B8883CB
:100550009983AA83BB83112319F1113108F010E1AB
:10056000E701812C912C5401C12ED12CE12CF12CCE
:100570008C149D04AE04BF0408F09ACF89E00E9459
:10058000B1018993EFEF8E1A9E0AAE0ABE0AF0CF30
:1005900001E0C2CF23E0880F991F2A95E1F7D3CF5E
:1005A00011E0DECFEF92FF920F931F93CF93DF9373
:1005B00000D000D0CDB7DEB7182F7B0167E08DE00B
:1005C0000E94A401F70110838E010F5F1F4F970156
:1005D00041E0B7018CE00E94E6018130A1F449813D
:1005E0005A816B817C81403151056105710559F457
:1005F0000F900F900F900F90DF91CF911F910F915F
:10060000FF90EF90089583E0F3CFEF92FF920F9366
:100610001F93CF93DF9300D000D0CDB7DEB77C011E
:1006200060E08DE00E94A40183E9F701808380E20D
:1006300081838E010F5F1F4F970142E0B7018CE06D
:100640000E94E601813071F4F70197012C5F3F4F62
:1006500090E041919427E217F307D9F7F70124813D
:10066000921383E00F900F900F900F90DF91CF9136
:100670001F910F91FF90EF9008958CE284B981E56E
:100680008CBD08958EBD0DB407FEFDCF8EB50895C7
:10069000CF93DF93CDB7DEB7A0970FB6F894DEBF48
:1006A0000FBECDBF80E287B988B988B9EFECF7E01B
:1006B0003197F1F700C0000098B1892788B98FE61B
:1006C00094E90197F1F700C000009FE7E8E3F1E04B
:1006D0009150E040F040E1F700C0000081E00E944E
:1006E000A30060E082E00E94470180E091E00E9468
:1006F000D40061E085E00E9447018CE091E00E9417
:10070000D4000E9477010E943D032FEF89E698E113
:10071000215080409040E1F700C0000060E081E09F
:100720000E9479000E9477010E94C00187E30E9425
:10073000B101823909F029C160E082E00E944701DD
:1007400082E191E00E94D40061E084E00E944701D0
:1007500081E291E00E94D40082E00E94B101682F02
:10076000606282E00E94A40183E00E94B101682FD0
:10077000606883E00E94A401EFEFFEE924E2E1500B
:10078000F0402040E1F700C0000060E081E00E94FE
:100790007900CE0101966C0180E1F60111928A95F3
:1007A000E9F78EEA898384E48A838DE28B838BE583
:1007B0008C838CE98D833E01F6E16F0E711C4E0136
:1007C00029E1820E911CBE016F5E7F4F82E50E947F
:1007D000D202182F482F60E080E00E9459011130AA
:1007E00009F0C1C0CE0141960E940503813009F095
:1007F000DCC08FE59AEE0197F1F700C0000060E0E1
:1008000081E00E9479008E010F5E1F4FF8018191F7
:100810008F016FEF7FEF90E00E94FB000815190534
:10082000A9F761E080E00E9447018FE491E00E9417
:10083000D400FFEF29E688E1F15020408040E1F745
:1008400000C0000060E081E00E9479008E010F5E30
:100850001F4F78018FE59AEE0197F1F700C0000075
:10086000F70181917F016FEF7FEF90E00E94FB0025
:10087000E614F70479F7FFEF20E782E0F15020401B
:100880008040E1F700C0000060E081E00E94790054
:10089000560161E080E00E944701F80180816FEF1E
:1008A0007FEF90E00E94FB00F50181915F01F8016C
:1008B0009081981383C061E080E00E944701F801B5
:1008C00080816FEF7FEF90E00E94FB008DE591E06B
:1008D0000E94D400FFE728E381E0F15020408040EF
:1008E000E1F700C0000060E081E00E94790081E053
:1008F00090E00F5F1F4FE016F10659F68130910529
:1009000009F05FC060E081E00E9479009FEFE4E3BE
:10091000FCE09150E040F040E1F700C0000083E6C9
:1009200091E00E94D4000E947701FFE72FE482E16A
:10093000F15020408040E1F700C0000060E081E01D
:100940000E94790085E791E00E94D4009FE7EAE1E8
:10095000F6E09150E040F040E1F700C0000060E0B8
:1009600081E00E9479008DE791E00E94D4002FEF92
:1009700089E698E1215080409040E1F700C00000F6
:1009800060E081E00E9479001ECF805960E08230F3
:1009900030F482E00E9447018AE291E0D3CE80E009
:1009A0000E94470189E391E0D5CE61E080E00E949A
:1009B000470189E491E00E94D40033CF8FEF9FEF8D
:1009C00098CF019609F0B1CF60E081E00E947900F4
:1009D0008FEF90E7E2E081509040E040E1F700C007
:1009E00000008BE691E00E94D4009FCF97FB072E7A
:1009F00016F4009407D077FD09D00E940A0507FC81
:100A000005D03EF4909581959F4F0895709561951E
:100A10007F4F0895AA1BBB1B51E107C0AA1FBB1F34
:100A2000A617B70710F0A61BB70B881F991F5A957A
:100A3000A9F780959095BC01CD010895F894FFCF5A
:100A4000524649442052656164657200312E302E51
:100A500030004D49464152452052433532327632BC
:100A6000004465746563746564004D4946415245B0
:100A70002052433532327631004E6F207265616408
:100A8000657220666F756E64004572726F72004207
:100A90004F555420544F20434845434B004D41543B
:100AA00043480053554343455353006E6F742076BB
:100AB000616C696400434845434B4544007072656E
:0A0AC00073656E74206361726400B8
:00000001FF
