:100000000C9434000C943E000C943E000C943E0082
:100010000C943E000C943E000C943E000C943E0068
:100020000C943E000C943E000C943E000C943E0058
:100030000C943E000C943E000C943E000C943E0048
:100040000C943E000C943E000C943E000C943E0038
:100050000C943E000C943E000C943E000C943E0028
:100060000C943E000C943E0011241FBECFEFD8E04C
:10007000DEBFCDBF0E944A000C9475000C940000B6
:100080003A9A399A97B121E0922797B988B1822795
:1000900088B908950E94400094E022E0429AEFE57A
:1000A000FAEE3197F1F700C0000088B1892788B9CE
:1000B000EFE5FAEE3197F1F700C000003099EECF8E
:1000C000419AFFEF33EC49E0F15030404040E1F716
:1000D00000C0000088B1822788B98FEFE3ECF9E017
:0E00E0008150E040F040E1F7E7CFF894FFCF09
:00000001FF
