:100000000C9434000C943E000C943E000C943E0082
:100010000C943E000C943E000C943E000C943E0068
:100020000C943E000C943E000C943E000C943E0058
:100030000C943E000C943E000C943E000C943E0048
:100040000C943E000C943E000C943E000C943E0038
:100050000C943E000C943E000C943E000C943E0028
:100060000C943E000C943E0011241FBECFEFD8E04C
:10007000DEBFCDBF0E9473000C9422010C940000DF
:1000800097B128E0922797B93A9A88B1822788B920
:10009000089597B128E0922797B93A9A3C9A88B187
:1000A000822788B985E090E040E134E0449A429AA2
:1000B0002FEF53EF61E0215050406040E1F700C066
:1000C000000028B1242728B928B1232728B92FEF09
:1000D00053EF61E0215050406040E1F700C0000064
:1000E000019721F708950E9449000E94400060E0B6
:1000F00070E080E090E00E94FF0084E0F82E94E041
:10010000E92E00E010E0C0E0D0E080910400909182
:1001100005000E94F9000297F9F483E090E0429A0A
:10012000EFE0F7E23197F1F700C0000028B12F258A
:1001300028B9FFEF23EF31E0F15020403040E1F7E4
:1001400000C00000019759F760E070E08091040062
:10015000909105000E94FF003399D7CF429A4FEF4C
:1001600080E792E0415080409040E1F700C00000FD
:1001700088B18F2588B9EFEFF0E722E0E150F04039
:100180002040E1F700C00000BE01F801819191918B
:100190008F010E94FF00FFEF20E732E0F150204086
:1001A0003040E1F700C000002196C630D10509F0CB
:1001B000ACCF4FEF82E597E0415080409040E1F7AF
:1001C00000C00000429AEFEFF9E628E1E150F0406C
:1001D0002040E1F700C0000088B18E2588B93FEFCC
:1001E00049EF80E0315040408040E1F700C000001E
:1001F00088CFA8E1B0E042E050E00C9406010E94F4
:100200001401272F0C941501DC01CB01FC01F99995
:10021000FECF06C0F2BDE1BDF89A319600B40D9252
:1002200041505040B8F70895262FF999FECF1FBAD4
:1002300092BD81BD20BD0FB6F894FA9AF99A0FBE0F
:0802400001960895F894FFCF28
:00000001FF
