:100000000C9434000C943E000C943E000C943E0082
:100010000C943E000C943E000C943E000C943E0068
:100020000C943E000C943E000C943E000C943E0058
:100030000C943E000C943E000C943E000C943E0048
:100040000C943E000C943E000C943E000C943E0038
:100050000C943E000C943E000C943E000C943E0028
:100060000C943E000C943E0011241FBECFEFD8E04C
:10007000DEBFCDBF0E947C000C9495000C94000064
:10008000089590E298B9EFE9FFE03197F1F700C0E9
:10009000000088B1892788B98FE99CE80197F1F7BA
:1000A00000C0000081E090E0089590E298B9EFEC84
:1000B000F7E03197F1F700C0000088B1892788B9CF
:1000C0008FE694E90197F1F700C0000081E090E02D
:1000D000089590E297B998B9EFECF7E03197F1F70E
:1000E00000C0000088B1892788B98FE694E901979C
:1000F000F1F700C0000008950E9469000E944100CD
:100100002FEF89E698E1215080409040E1F700C050
:1001100000000E9455002FEF89E698E121508040B1
:0E0120009040E1F700C00000E9CFF894FFCF57
:00000001FF
